:020000040800F2
:1000000040150020E9010008991D0008411D000865
:10001000951D0008ED160008FF34000800000000E0
:10002000000000000000000000000000132E000887
:10003000E517000800000000B1290008252F00087E
:10004000030200080302000803020008030200087C
:100050000302000803020008E91700080302000871
:10006000030200080302000803020008030200085C
:10007000030200080302000803020008030200084C
:10008000030200080302000803020008030200083C
:10009000030200080302000803020008030200082C
:1000A000030200080302000803020008030200081C
:1000B00003020008892F0008BD3000080302000871
:1000C00003020008030200080302000803020008FC
:1000D00003020008DD3200080302000803020008E2
:1000E00003020008030200080302000800F002F8FF
:1000F00000F06AF80AA090E8000C82448344AAF158
:100100000107DA4501D100F05FF8AFF2090EBAE855
:100110000F0013F0010F18BFFB1A43F0010318473B
:100120008C760000AC7600000A444FF0000C10F80A
:10013000013B13F0070408BF10F8014B1D1108BF65
:1001400010F8015B641E05D010F8016B641E01F805
:10015000016BF9D113F0080F1EBF10F8014BAD1C55
:100160000C1B09D16D1E58BF01F801CBFAD505E073
:1001700014F8016B01F8016B6D1EF9D59142D6D3CD
:10018000704700000023002400250026103A28BFF5
:1001900078C1FBD8520728BF30C148BF0B607047F9
:1001A000662905F08885642900F07C80002070476E
:1001B0001FB500F0E5FB04000020002104F014FD51
:1001C000E0601FBD10B510BD00F0DEFC1146FFF76A
:1001D000EFFF03F099FF00F0FCFC03B4FFF7F2FF20
:1001E00003BC03F00FFA00000948804709480047A4
:1001F000FEE7FEE7FEE7FEE7FEE7FEE7FEE7FEE7D7
:10020000FEE7FEE704480549054A064B7047000033
:10021000292F0008ED000008400F002040150020A5
:100220004011002040110020704700000FB41CB5A1
:10023000074B06AA7B4469460090059800F087FBAF
:100240000020694600F096FB1CBC5DF814FB000022
:100250003D07000070B5044685690068C10601D5F8
:10026000302600E02026C00707D070BDD4E9012168
:1002700030469047206A401C20626D1EF6D570BD46
:1002800070B5044685690078C00707D170BDD4E910
:10029000012120209047206A401C20626D1EF6D567
:1002A00070BD00002DE9F041064600241068752954
:1002B000314616A510D0AFF30080002802DA404284
:1002C00013A507E031688A0701D512A502E04907A6
:1002D00004D511A5012401E0AFF3008000210A221A
:1002E00006F1240709E0B0FBF2FCB0FBF2F302FBDD
:1002F0001C00303078541846491C0028F3D123469E
:100300002A463046BDE8F04100F0B3B800000000D6
:100310002D0000002B000000200000002DE9F05F00
:10032000894604464FF0000ADFF824B1FB44C0F8C8
:1003300020A02046E168884700287DD0252806D0E7
:10034000D4E901219047206A401C2062F1E7002592
:100350005F462046E16888472028064607DB312EA5
:1003600005D2B81910F8200C08B10543F1E7A80729
:1003700001D525F00405C4F81CA00027C4F818A076
:100380002A2E09D0304603F036F938B304EB87083B
:10039000303EC8F8186019E059F8041B204604EBF9
:1003A00087029161E1688847012F064618D1E0690C
:1003B000002820DA25F020051DE0D8F8180000EB11
:1003C000800006EB40003038C8F818002046E1688D
:1003D0008847064603F00FF90028EED1012F0AD016
:1003E0002E2E08D12046E16888477F1C0646022F42
:1003F00045F02005C4DBA069002803DA404245F03F
:100400000105A061E80701D025F01005A6B1A6F10D
:100410004100192802D8203645F400654A46314685
:10042000204625604D46FFF7BBFE60B1012807D08E
:10043000ED1D25F0070000E007E000F1080978E76E
:1004400005F1040975E730467AE7206ABDE8F09FB8
:1004500094730000704770477047704710B500F004
:1004600093FA006810BD10B5044600F08DFA0460E0
:1004700010BD2DE9F0470D4699469246044600F11D
:1004800024080168880604D5E06921F01001216084
:1004900000E00120A84201DD471B00E00027A16920
:1004A0007A1902EB0900081AA0612078C00602D46C
:1004B0002046FFF7CFFE002608E0D4E901211AF814
:1004C00006009047206A401C761C20624E45F4DBF3
:1004D0002078C0060AD52046FFF7BCFE06E0D4E926
:1004E000012130209047206A401C2062381EA7F16D
:1004F0000107F4DC07E0D4E9012118F80500904772
:10050000206A401C2062281EA5F10105F3DC20466C
:10051000FFF7B6FE2078000602D50220BDE8F0877E
:100520000120FBE770472DE9FF4F0C461E464FF0B8
:10053000FF378BB0D2E90001DDF860800A908A466F
:10054000C1F30A5505B93D46002108464FF00000A9
:10055000BAF1000F00F4400005DA00EB80004FF420
:10056000400101EA50004FEA9059B9F1010F00DD56
:10057000B9460A9850EA4A000ED044F61050A5F247
:10058000FF3545432F14B8F1000F1ED07542291EC8
:100590001EDDC9F100021CE0B8F1010F4FF00000B0
:1005A00001D0302103E0F24305E02154401CB04269
:1005B000FBDB30460022002121540B99C1F8088052
:1005C000C1E900200FB0BDE8F08FBD1B6D1CDEE758
:1005D0004A4600DA694206A800F060FA06AB93E8E2
:1005E000070003AB83E8070050460A9900F03AFB86
:1005F0008DE80700A0F500501F3800900398002DEB
:100600000ADD42F21F014A460844002303A9039071
:10061000684600F0A3FD09E0A0F500504A461F38E7
:10062000002303A90390684600F0ADFD8DE80700A4
:100630000004000C03D04FF0FF30410800E01046EA
:10064000B8F1000F03D00022009215461EE0751E7F
:1006500005D400F09DF9303262556D1EF9D5B346D0
:100660000122084302D000227F1C04E020783028B9
:1006700001D100227F1E002A099784D01DE0112D90
:1006800007DA00F085F9303262556D1C50EA01023C
:10069000F5D1084302D00098C8B10EE00021681ED1
:1006A00005E0235C625C63542254401E491C814275
:1006B000F7DBAB46A81B401E0990002004F80B0096
:1006C0000B98099AC0F80880C0E9002B7AE7112638
:1006D0004FF0000857E72DE9F04F88460446D21D39
:1006E00022F0070191B0D1E90001CDE90A0102F041
:1006F00008FF02460B98C00F01D02D2007E02068AC
:10070000810701D52B2002E0202101EAC000032A45
:10071000099001D0072A05DB03464146204600F038
:100720007DF90BE12078800601D5E06900E0062024
:10073000B8F1650F814606D0B8F1660F18D0B8F150
:10074000670F70D131E00020B9F1110F009001DB8B
:10075000112301E009F101030AAA01A90CA8FFF77E
:10076000E2FEDDE90C70002609F10105834647E051
:1007700001204B4600904FF000470AAA01A90CA89F
:10078000FFF7D1FEDDE90DB00C995D46002610B9EA
:1007900009F101000D18B9EB050003D4C0F1FF36D3
:1007A00009F10105A5EB09002BE0B9F1010F01DA10
:1007B0004FF001090020B9F1110F0090484601DD0A
:1007C000112300E003460AAA01A90CA8FFF7ABFE1B
:1007D000DDE90C704D4600268346207800070AD4D8
:1007E000AB4500DA5D4601A8012D04DD411911F881
:1007F000011C302907D04F4502DA17F1040F04DA43
:10080000012082460FE06D1EEEE7002F02DCED1B9B
:100810003E4403E0781CA84200DD7D1CB81B00F1BB
:10082000010A4FF000472078000703D4AA4501DBF6
:100830004FF0FF3A0021B7F1004F0DF143088DF85A
:10084000431024D002202B23002F01DA7F422D23D6
:100850000A21021EA0F1010000DC5FB197FBF1FC50
:1008600097FBF1F201FB1C7C17460CF1300C08F8E9
:1008700001CDEEE7A8F1010003702188090501D53B
:10088000452100E06521A0F1010800F8011C09984C
:100890000FA9A1EB0807FF1D00B10120411901EBD1
:1008A000EA70A1693844081A401EA0612078C00689
:1008B00002D42046FFF7CEFC099828B1D4E90121E3
:1008C0009047206A401C20622078C00622D520462E
:1008D000FFF7C0FC1EE0002E04DBB34502DD01A8DB
:1008E000805D00E03020D4E901219047206A401C5F
:1008F0002062761CAAF101005FEA000A0AD100F02A
:100900003FF8C0680168405CD4E901219047206A43
:10091000401C2062281EA5F10105DCDC07E0D4E9BB
:10092000012118F8010B9047206A401C2062381EF4
:10093000A7F10107F3DC2046FFF7A2FC032011B06A
:1009400041E6000001694A1C02610878704700B561
:100950008FB0CDE901310021059105497944CDE9F8
:10096000031011466846FFF7D9FC0FB000BD000028
:10097000E5FFFFFF0A6802F8010B0A6070470000FC
:1009800000487047FC0E002000487047DC0E002035
:1009900030B5B0F10A024FEA900E71F100034EEA51
:1009A000817EB0EB0E0061EB91014FEA101E4EEA22
:1009B000017E10EB0E0041EB11114FEA102E4EEAB2
:1009C000016E10EB0E0041EB11214FEA104E4EEA82
:1009D000014E10EB0E0041EB1141401841F10001B6
:1009E0004FEAD00040EA41704FEAD10110EB800598
:1009F0004FEA810444EA907444EB01046D1944EB1E
:100A00000404521BA3414FF0000348BF0A3200D533
:100A100030BD401C41F1000130BD00002DE9F04126
:100A20001F46044603260168072A01F4006004DB20
:100A300008B116A505E016A503E008B115A500E06C
:100A400015A521F010002060A069C01EA0610FB1A3
:100A5000401EA0612046FFF7FDFB4FB1D4E9012104
:100A600038469047206A401C2062C01C206206E085
:100A7000206AFAE7D4E9012115F8010B9047761EA8
:100A8000F8D22046FFF7FCFBBDE8F0814E414E0056
:100A90006E616E00494E4600696E66002DE9F047B2
:100AA000814616468AB0354878440DC88DE80D0059
:100AB00032487844801C03AC0DC884E80D0041F630
:100AC0009B300844372190FBF1F290FBF1F5A5F142
:100AD000800501FB12041B3C02D56442012000E0AA
:100AE0000020DFF898A080460027FA44AAF1BE0A49
:100AF0000EE0E0070AD03246684607EB47010123C3
:100B00000AEB810100F03FFB8DE8070064107F1CB9
:100B1000002CEED1194F7F44AE3F19E0E80715D005
:100B200007EB04100DF1180A90E80E008AE80E0099
:100B3000C068F04201D1981908903246012306A9F5
:100B400003A800F020FB03AB83E807006D10641CD2
:100B5000002DE3D14FF0010332466946B8F1000F92
:100B600003A802D000F0FAFA01E000F00CFBC9E99A
:100B70000001C9F808200AB0BDE8F087E86C000061
:100B800000487047DC0E00207546FFF7F9FFAE46BF
:100B900005006946534620F00700854618B020B589
:100BA000FFF730FBBDE820404FF000064FF0000794
:100BB0004FF000084FF0000B21F00701AC46ACE805
:100BC000C009ACE8C009ACE8C009ACE8C0098D4672
:100BD000704710B50446AFF300802046BDE81040D2
:100BE000FFF7FBBA4FF0013C50F8042B51F8043BDF
:100BF0009A4221D1A2EB0C03934313EACC1317D1F1
:100C000050F8042B51F8043B9A4215D1A2EB0C0387
:100C1000934313EACC130BD150F8042B51F8043B47
:100C20009A4209D1A2EB0C03934313EACC13DBD015
:100C30004FF00000704700BFD01A01BAB1FA81F13D
:100C400001F0180122FA01F0CB40C1F12001DBB222
:100C5000C0B2C01A2CFA01F3D11A914311EAC311A0
:100C6000E6D170475FEA400C08BF91F0000F4FEAF1
:100C70008C234FEAC12243EA51514FEA1C5018BF5E
:100C800000F5F0404FEA300018BF41F000415FEA44
:100C90006C5C00F02980BCF1FF3F08BF40F0804051
:100CA0007047130C06BF12044FF0100C4FF0000CED
:100CB000130E04BF12020CF1080C130F04BF120133
:100CC0000CF1040C930F04BF92000CF1020CD30F33
:100CD00004BF52000CF1010C11464FF00002A0F1CC
:100CE0001F00A0EB0C00704711F0004F08BF7047C9
:100CF00031F000413FF4D5AF0B0C06BF09044FF0B3
:100D0000100C4FF0000C0B0E04BF09020CF1080C84
:100D10000B0F04BF09010CF1040C8B0F04BF8900F9
:100D20000CF1020CCB0F04BF49000CF1010CCCF10B
:100D30002003A0EB0C0022FA03F302FA0CF241EAC2
:100D4000030100F10100704720F07F4C80EA0300AE
:100D500023F07F47ACEB070303F57C5300F0004022
:100D600003F1FF032DE980494FEA154B09B44FEA1F
:100D7000144325EA0B4E24EA03480FF2042606EB3F
:100D8000132749083E785FEA320203FB0667C7F57E
:100D9000000707FB06F64FEA54374FEAD64606F13E
:100DA000020607FB066CCCF1005C4FEA1C472CEAFC
:100DB000074C07FB06F40CFB06F504EB15464FEA5F
:100DC000961634BF00204FF000404FEAD13706FBA3
:100DD00007FC4FEA1C4C0CFB0BF7D21B03FB0CF778
:100DE00061EB07010CFB0EF7B0EB074072EB17420B
:100DF0000CFB08F734BFA2EB0742B2EB074261EBF2
:100E000017414FEA0C444FEA910706FB07FC4FEAF3
:100E10001C4C0CFB0BF7B0EBC74072EB573203FBDB
:100E20000CF734BFA2EBC742B2EBC74261EB5731BC
:100E30000CFB0EF7B0EBC70072EB57720CFB08F718
:100E400034BFA2EBC702B2EBC70261EB5771039F3D
:100E50004FEA816141EA921104EBCC044FEAD137A9
:100E60004FEA826206FB07FC42EA90124FEA80607A
:100E70004FEA1C4C0CFB0BF7D21B03FB0CF761EB8E
:100E800007010CFB0EF7B0EB074072EB17420CFBAF
:100E900008F734BFA2EB0742B2EB074261EB174100
:100EA0004FEA8C554FEA910704EB9C2406FB07FCA4
:100EB0004FEA1C4C0CFB0BF7B0EBC74072EB573200
:100EC00003FB0CF734BFA2EBC742B2EBC74261EBA6
:100ED00057310CFB0EF7B0EBC70072EB57720CFBEF
:100EE00008F734BFA2EBC702B2EBC70261EB577140
:100EF00015EB4C254FEA816141EA92114FEA82627B
:100F00004FEAD13742EA901206FB07FC44F1000495
:100F10004FEA80604FEA1C4C0CFB0BF7D21B03FB23
:100F20000CF761EB07010CFB0EF7B0EB074072EB1F
:100F300017420CFB08F734BFA2EB0742B2EB0742A3
:100F400061EB174115EB1C154FEA813141EA9241E3
:100F50004FEA823242EA90424FEA80304FEA0C7602
:100F600044F1000448EA03434EEA0B484FF0000EF8
:100F7000B2EB080C71EB030724BF624639464EEB17
:100F80000E0E4FF0000B0018524149414BEB0B0B7A
:100F9000B2EB080C71EB03077BF1000B24BF624638
:100FA00039464EEB0E0E4FF0000B001852414941EE
:100FB0004BEB0B0BB2EB080C71EB03077BF1000B57
:100FC00024BF624639464EEB0E0E51EA020718BFA7
:100FD00046F0010616EB0E7655F1000254F10001C1
:100FE00003D5BDE88901BDE80088BDE88901BDE8F9
:100FF0000048B619524141EB0101A3F101037047CA
:1010000080807F7E7D7C7B7A797877767675747345
:10101000727171706F6E6E6D6C6C6B6A6A69686804
:10102000676666656464636362616160605F5F5E9A
:101030005E5D5D5C5C5B5B5A5A5959585857575610
:101040005655555554545353525252515150505075
:101050004F4F4F4E4E4D4D4D4C4C4C4B4B4B4A4AC7
:101060004A4949494848484747474746464645450B
:101070004544444444434343434242424241414144
:10108000002B9C4630D477002BD01CB54FEA370795
:1010900003B44FF010004FF01001BAF1000F06D06A
:1010A000BCF1000FDCBF40F0080040F008014FF039
:1010B00000000FBCBDE810400BF1010BBBF1010FAC
:1010C00008BF5FEA170722BF12F1010211F1010107
:1010D0004FF0004143F1000300F0004043EA0000FC
:1010E0007047F9D35708D0E746EA064613F1400F98
:1010F0004FEA16461FDD13F1200FDFBF16430A46E5
:10110000002120335B42BED0C3F1200746EA0646E9
:1011100002FA07F74FEA164646EA0706C3F1200728
:1011200022FA03F201FA07F721FA03F14FF0000364
:1011300042EA0702A7E746EA020646EA06464FEAFF
:10114000164646EA0106BCBF46EA0646360C4FF094
:1011500000034FF000024FF0000194E72DE9804CAE
:101160009A46934670B491E8380007C831EA400CBB
:1011700048BF34EA430C03D5FFF7E6FDFFF780FFD5
:10118000F0BCBDE8008C2DE9804C9A46934670B4C3
:1011900091E8380007C810F0804F08BF13F0804F67
:1011A00003D100F005F8FFF76BFFF0BCBDE8008C41
:1011B00020F07F4780EA030023F07F4C07EB0C030D
:1011C000A3F57C5300F00040A3F1FE0392F0000F62
:1011D00000F0B38095F0000F00F077802DE9014911
:1011E0004FEA11404FEA144621EA004800FB06FC92
:1011F00024EA064708FB06F607FB08F800FB07F79A
:1012000018EB06484CEB164C4FEA124B18EB07480C
:101210004FEA15464CEB174022EA0B4E0BFB06FC3F
:1012200025EA06470EFB06F607FB0EFE0BFB07F74B
:101230001EEB064E4CEB164C4FF000061EEB074E15
:101240004CEB174B18EB0B0840F1000018EB0E0BA2
:1012500058EB000840F100008F1A4FF000013CBF2E
:10126000C943661B14BFB5EB040C00213CBFC94346
:10127000F61B4FEA17444EEA8E0E27EA04454FEA62
:101280001C4704FB07622CEA074C05FB07F70CFB25
:1012900005F604FB0CFC16EB074642EB174216EB77
:1012A0000C4642EB1C421BEB060658EB0202414186
:1012B00046EA9E0601D5BDE80189B619524141EBC7
:1012C0000101A3F10103BDE801894FEA14454FEA8A
:1012D000114724EA054621EA074C05FB07F406FB03
:1012E00007F70CFB06F105FB0CFC11EB074144EB87
:1012F00017444FEA124711EB0C4144EB1C4422EA1D
:10130000074C05FB07F206FB07F70CFB06F605FB8F
:101310000CFC16EB074642EB174216EB0C4642EB71
:101320001C456A1854F1000148BF7047B619524174
:1013300041EB0101A3F10103704795F0000F37D095
:101340004FEA11424FEA144721EA024624EA074CC9
:1013500002FB07F106FB07F70CFB06F402FB0CFC93
:1013600014EB074441EB17414FEA154714EB0C44CB
:1013700041EB1C4125EA074C02FB07F506FB07F78A
:101380000CFB06F602FB0CFC16EB074645EB17457B
:1013900016EB0C4645EB1C42121951F1000148BFF7
:1013A0007047B619524141EB0101A3F101037047A7
:1013B0004FEA14454FEA114724EA054621EA074C53
:1013C00005FB07F106FB07F70CFB06F24FF00006E2
:1013D00005FB0CFC12EB074241EB174112EB0C42F0
:1013E00051EB1C4148BF7047921841EB0101A3F13A
:1013F0000103704721B1826842F00102826003E07C
:10140000826822F0010282607047000010B5044635
:101410001248844208D10121401501F0F7FA002159
:10142000601501F0F3FA17E00D48844208D101215C
:10143000001501F0EBFA0021201501F0E7FA0BE0AE
:101440000848844208D10121C80301F0DFFA0021D5
:101450004FF4004001F0DAFA10BD00000024014012
:1014600000280140003C0140014600208A6802F04B
:1014700004020AB1012000E0002070470146C86C58
:1014800080B270470246002013680B400BB1012068
:1014900000E000207047014600208A6802F0080240
:1014A0000AB1012000E000207047000030B502467C
:1014B0000020002350680F4C20400D790C6844EA4E
:1014C00005242043506090680B4C2040D1E9025421
:1014D0002C434D7944EA450420439060D06A20F4BF
:1014E00070000C7C641EE4B2234340EA0350D062D7
:1014F00030BD0000FFFEF0FFFDF7F1FFF0B5044640
:101500000D4600200021092D11DDE068A5F10A0635
:1015100006EB4607072606FA07F18843A5F10A06F7
:1015200006EB460603FA06F10843E0600CE020698A
:1015300005EB4507072606FA07F1884305EB450644
:1015400003FA06F108432061072A0FDA606B561E82
:1015500006EB86071F2606FA07F18843561E06EBA0
:10156000860605FA06F10843606322E00D2A0FDAC9
:10157000206BD61F06EB86071F2606FA07F1884365
:10158000D61F06EB860605FA06F10843206310E035
:10159000E06AA2F10D0606EB86071F2606FA07F1A0
:1015A0008843A2F10D0606EB860605FA06F108430C
:1015B000E062F0BD816841F008018160704721B1AF
:1015C000826842F4A002826003E0826822F4A002F2
:1015D00082607047816841F00401816070470000BB
:1015E00000B587B00121042001F000FA5420ADF8C5
:1015F000180003208DF81A0000208DF81B0006A9A2
:101600002A4800F00BFA4FF48070ADF8180004205F
:101610008DF81B0006A9254800F000FA01214802B8
:1016200001F0E4F94FF4004001F0C4F92048FFF75D
:10163000EDFE002001908DF808008DF809004FF4B0
:10164000602003900020049001208DF8140001A96F
:101650001748FFF72BFF0723012202211448FFF749
:101660004DFF0723012204211148FFF747FF0723FD
:10167000012206210E48FFF741FF01210C48FFF728
:10168000B9FE0B48FFF796FF00BF0948FFF703FFBD
:101690000028FAD10648FFF79DFF00BF0448FFF776
:1016A000E3FE0028FAD107B000BD000000080140A9
:1016B0000024014008B50121082001F097F94FF4FA
:1016C0000070ADF8000010208DF8030003208DF8A5
:1016D00002006946044800F0A1F94FF40071024885
:1016E00000F079FA08BD0000000C014000BFFEE7E1
:1016F000F8B5054600246DE0C4EBC400374901EBA2
:10170000800005EB0413D3E901621968DB68C0E9C6
:101710000162C3600160C4EBC401304A02EB810185
:10172000C868012101F062F9C4EBC4002B4901EB48
:10173000800000892DF82400C4EBC40011F82000BB
:10174000694601EB8401C8706A4602EB8401C4EB70
:10175000C402224B03EB8202506800F05FF90120C3
:10176000C4EBC4011D4A02EB810108740021C4EBE3
:10177000C40002EB80004174C4EBC40002EB8000A3
:101780008174C4EBC400114611F82000482806D12A
:101790000021C4EBC40002EB8000C17406E001210B
:1017A000C4EBC4000D4A02EB8000C1740021C4EBFD
:1017B000C4000A4A02EB80000175C4EBC40002EBCE
:1017C000800041750649C4EBC40002EB80008161D2
:1017D000601CC4B2012C8FDBF8BD0000E8090020BA
:1017E000851D00087047000010B5012001F04CFF76
:1017F00001200A4908800A4800680A49D1F80C11FA
:10180000884203D106200549488002E007200349A9
:101810004880012000F008F810BD000058000020AA
:101820000081214200802142014908607047000088
:1018300014040140002123498279002A3AD00A4643
:10184000126803689A430B461A600A1D12680368FF
:101850009A430B1D1A60027911440A6803681A43FF
:101860000A60184A0832126803689A43154B083315
:101870001A601A1D126803689A43124B0C331A60DF
:101880004279102A0ED11A1F126803681A430D4BB1
:1018900008331A601A1D126803681A43094B0C3387
:1018A0001A600DE00749427911440A6803681A4337
:1018B0000A6005E0027911440A6803689A430A60E5
:1018C000704700000004014030B5044604254FF481
:1018D000302000F06FF80546042D17D10C48006940
:1018E00040F002000A49086108464461006940F07E
:1018F000400008614FF4302000F05CF805460448D1
:10190000006941F6FD71084001490861284630BD73
:101910000020024004200B49C96801F0010109B10F
:1019200001200EE00749C96801F0040109B1022055
:1019300007E00449C96801F0100109B1032000E083
:1019400004207047002002400348006940F08000F6
:1019500001490861704700000020024070B504464C
:101960000D460426F00200F025F80646042E11D19B
:101970000948006940F00100074908612580F0022C
:1019800000F018F806460448006941F6FE71084068
:1019900001490861304670BD0020024002480349F9
:1019A00048600348486070472301674500200240B3
:1019B000AB89EFCD00B502460423FFF7ABFF03462A
:1019C00003E0FFF7A7FF0346521E012B01D1002AB7
:1019D000F7D102B90523184600BD000030B500223A
:1019E0008B071C0F0F2303FA04F20B4B8C1053F8D8
:1019F00024309343084C8D1044F8253023468C1036
:101A000053F824308C07240F00FA04F42343024CCB
:101A10008D1044F8253030BD080001402DE9F0411B
:101A2000024600250026002000230024002791F80C
:101A300003C00CF00F0591F803C00CF0100CBCF1C2
:101A4000000F03D091F802C04CEA050591F800C0E0
:101A5000BCF1000F31D0146800202BE04FF0010CD6
:101A60000CFA00F3B1F800C00CEA03069E4220D144
:101A700083004FF00F0C0CFA03F7BC4305FA03FC8C
:101A80004CEA040491F803C0BCF1280F06D14FF0D2
:101A9000010C0CFA00FCC2F814C00AE091F803C073
:101AA000BCF1480F05D14FF0010C0CFA00FCC2F854
:101AB00010C0401C0828D1D31460B1F800C0BCF19C
:101AC000FF0F34DD546800202EE000F1080C4FF0C9
:101AD000010808FA0CF3B1F800C00CEA03069E42B4
:101AE00021D183004FF00F0C0CFA03F7BC4305FA29
:101AF00003FC4CEA040491F803C0BCF1280F05D1A3
:101B000000F1080C08FA0CF8C2F8148091F803C030
:101B1000BCF1480F07D100F1080C4FF0010808FA9A
:101B20000CF8C2F81080401C0828CED35460BDE8E1
:101B3000F0810000F0B50A460023002400210025B2
:101B400000F00046B6F1004F02D11D4EF16901E0F0
:101B50001B4E7168C0F3034583B200F44016B6F51E
:101B6000401F08D121F07061154E766826F070662E
:101B7000134F7E6012E000F48016B6F5801F06D188
:101B8000032606FA05F4A14341F0706106E0460D14
:101B9000360103FA06F6B14341F0706122B1460DF9
:101BA000360103FA06F6314300F00046B6F1004F65
:101BB00002D1034EF16101E0014E7160F0BD000001
:101BC000000001400246002093680B400BB1012049
:101BD00000E00020704741617047016170470000DC
:101BE00010B504460723012221460948FFF786FC69
:101BF00001210748FFF7E3FC00BF02210448FFF77B
:101C000041FC0028F9D00248FFF738FC10BD000065
:101C1000002401402DE9F04107460C46002500262E
:101C200008E03846FFF7DCFF0544052001F052FDCF
:101C3000701CC6B2A642F4DBB5FBF4F080B2BDE87E
:101C4000F081000070B500242DE0C4EBC4001749FA
:101C500001EB8000007C00B923E0C4EBC400134911
:101C600001EB8005C4EBC40001EB8000866995E8B8
:101C70000F00B047C4EBC4010C4A02EB8101C97CE0
:101C8000884206D10121C4EBC40002EB80008174BC
:101C900006E00021C4EBC400044A02EB800081741A
:101CA00000BF601CC4B2012CCFDB70BDE80900206E
:101CB00000B589B00121084600F088FE012104200A
:101CC00000F094FE0120ADF8200018208DF82300CC
:101CD00003208DF8220008A91748FFF79FFE174838
:101CE0000088401E80B2ADF8180040F2CF20ADF859
:101CF00014000020ADF81A00ADF8160005A94FF049
:101D0000804001F099FA6020ADF804000120ADF8A0
:101D100006000020ADF80C0001A94FF0804001F052
:101D200033FA0821C80601F07BFA0121880701F087
:101D300004FA09B000BD0000000801409005002031
:101D400000BFFEE71FB50C4B0FCB8DE80F0001F075
:101D5000E7FC6846FFF7CCFC0121084600F046FE90
:101D600001210648FFF7E6FE0548406820F0200004
:101D7000034948601FBD0000AC5D00080002300050
:101D8000002004E01FB5BDF808100198FFF71AFF06
:101D900004B010BD00BFFEE77047000070B5002121
:101DA00000230F22C47804B3154C246804F4E064C3
:101DB000C4F5E064210AC1F10403CA40447804FA7E
:101DC00003F184781440214309010E4C0678A15593
:101DD000047804F01F050124AC4005786D11AD00B6
:101DE00005F1E025C5F8004109E0047804F01F057D
:101DF0000124AC40044D0678761145F8264070BDAC
:101E00000CED00E000E400E080E100E00249014365
:101E1000024A1160704700000000FA050CED00E076
:101E200070B5002419E004F1B001C8B2002100F03F
:101E30006FFB0021084600F06BFB0021102000F032
:101E400067FB002505E00121002000F061FB681C14
:101E5000C5B2802DF7DB601CC4B2082CE3DB70BD7B
:101E6000F0B5144600267F2801DC3F2900DDF0BDD7
:101E70000B46CF1701EB5777FF10C7F10707FAB2F0
:101E8000CF1701EB5777FF10A1EBC707FDB2C5F1E4
:101E900007070123BB40DEB24CB10A4B03EBC00382
:101EA0009B5C3343074F07EBC007BB5408E0054B6F
:101EB00003EBC0039B5CB343024F07EBC007BB546B
:101EC00000BFD4E7040A00202DE9F04F06460C4677
:101ED00017469846A346002530E017F805904FF0C6
:101EE000000A25E009F0800028B1214630460A9A10
:101EF000FFF7B6FF09E00A9808B9012000E00020CA
:101F0000024621463046FFF7ABFF4FF6FF7000EA6E
:101F10004909601CC4B2A4EB0B010998814203D1AA
:101F20005C46701CC6B206E00AF101001FFA80FA96
:101F3000BAF1080FD6DB00BF681C85B2099908FB0F
:101F400001F0C11700EB5171B5EBE10FC5DBBDE846
:101F5000F08F00002DE9F04F07460C4690461D46D5
:101F6000A346002631E01B4800EB481010F806900D
:101F70004FF0000A23E009F0800028B12A462146EC
:101F80003846FFF76DFF08E00DB9012000E00020A2
:101F9000024621463846FFF763FF4FF6FF7000EA1E
:101FA0004909601CC4B2A4EB0B00322803D15C4683
:101FB000781CC7B206E00AF101001FFA80FABAF1F4
:101FC000080FD8DB00BF701C86B2B02ECBDBBDE89B
:101FD000F08F0000046900082DE9F04706460F461F
:101FE00090469946DDF820A034460CE03D4606E0D8
:101FF000524629462046FFF733FF681CC5B24D45BF
:10200000F6DD601CC4B24445F0DD00F0B3F8BDE875
:10201000F087000008B50121082000F0E7FC4FF42C
:102020003C40ADF8000010208DF8030003208DF82F
:10203000020069464E48FFF7F1FC4FF42C414C4832
:10204000FFF7CBFD4FF480514948FFF7C4FD4FF433
:1020500080614748FFF7C1FD642001F015FB4FF494
:1020600080614348FFF7B7FDC82001F00DFB4FF436
:1020700080613F48FFF7B1FD0021AE2000F048FA33
:102080000021084600F044FA0021102000F040FA38
:102090000021402000F03CFA0021812000F038FAB5
:1020A0000021CF2000F034FA0021A12000F030FA06
:1020B0000021C02000F02CFA0021A62000F028FA10
:1020C0000021A82000F024FA00213F2000F020FA8F
:1020D0000021D32000F01CFA0021084600F018FA75
:1020E0000021D52000F014FA0021802000F010FA21
:1020F0000021D92000F00CFA0021F12000F008FAAC
:102100000021DA2000F004FA0021122000F000FA89
:102110000021DB2000F0FCF90021402000F0F8F95C
:102120000021202000F0F4F90021022000F0F0F955
:1021300000218D2000F0ECF90021142000F0E8F9D6
:102140000021A42000F0E4F90021A62000F0E0F92D
:102150000021AF2000F0DCF90021AF2000F0D8F919
:10216000FFF75EFE0021084600F02AF808BD0000D7
:10217000000C014070B500241CE004F1B001C8B2AD
:10218000002100F0C5F90021084600F0C1F9002146
:10219000102000F0BDF9002508E0084901EBC50159
:1021A000085D012100F0B4F9681CC5B2802DF4DB94
:1021B000601CC4B2082CE0DB70BD0000040A0020E3
:1021C00070B504460D4605F1B001C8B2002100F01B
:1021D0009FF9102141EA1410002100F099F904F050
:1021E0000F0141F00100002100F092F970BD0000E4
:1021F0002DE9F84F80460F4616461C46BA46204643
:10220000E31704EB5373DB1021464FEAE47C04EB45
:102210005C7C4FEAEC0CA4EBCC0CBCF1000F02D0C0
:102220004FF0010C01E04FF0000C6344224604EB38
:10223000D27C4FEA6C0C03FB0CF303F0FF0BA6F10E
:102240002000C6B200254EE00C2C07D106EB46005C
:10225000274901EB8000405D009013E0102C05D170
:10226000244800EB0610405D00900BE0182C07D1CD
:1022700006EBC600204901EB8000405D009001E0C4
:10228000BDE8F88F4FF0000927E0009800F08000CB
:1022900028B1394640460A9AFFF7E2FD09E00A985C
:1022A00008B9012000E00020024639464046FFF709
:1022B000D7FD00984006000E0090781CC7B2A7EB2F
:1022C0000A00A04205D1574608F1010000F0FF08BE
:1022D00006E009F1010000F0FF09B9F1080FD4DBB5
:1022E00000BF681CC5B25D45AEDB00BFC8E700009B
:1022F0007C5E0008F0620008E06800082DE9FE4FEF
:1023000006460D4617461C46DDF830A001952046CE
:10231000E21704EB5272D2102146E31704EB537319
:10232000DB10A4EBC3030BB1012300E000231A442C
:102330006243D2B200920C2C05D107EB470025492D
:1023400001EBC0090AE0102C03D1234800EB471928
:1023500004E007EBC700214901EBC0094FF000087A
:1023600032E019F808B00020029025E00BF0800060
:1023700028B1E9B2F0B25246FFF772FD0AE0BAF1B5
:10238000000F01D1012300E000231A46E9B2F0B2A8
:10239000FFF766FD4FEA4B604FEA106B681C85B291
:1023A0000198281AA04203D1019D701C86B206E054
:1023B0000298401CC0B2029002980828D6DB00BFE9
:1023C00008F1010000F0FF0800988045C9DBBDE876
:1023D000FE8F0000847000089C7000087C76000866
:1023E0002DE9F8430546884616461F46DDF820903D
:1023F00000240BE0CDF80090325D05EB041188B2AB
:1024000010234146FFF77AFF601CC4B2BC42F1DBE7
:10241000BDE8F8832DE9FF4F81B0074691461E467F
:102420000E9D4FF0000A002439E0301B401EC1B25F
:102430000A2002F039FBB9FBF0F00A21B0FBF1F2FF
:1024400001FB1208BAF1000F16D1701EA04213DD75
:10245000B8F1000F0ED10120AB4605EBDB7149103E
:1024600001FB04710090C8B22B4620220299FFF7AD
:10247000BFFE12E04FF0010A0120AB4605EBDB7115
:10248000491001FB04710090C8B208F13001CAB2D2
:102490002B460299FFF7ACFE00BF601CC4B2B442E9
:1024A000C3DB05B0BDE8F08F2DE9F84306460F46C3
:1024B00015461C46DDF8208021E004EBD47149105C
:1024C000C1F18001B14202DA00263819C7B2C4F165
:1024D0004000B84204DA002006460746FFF7A0FC99
:1024E000CDF800802A78234639463046FFF780FE33
:1024F000204604EBD07106EB6101CEB26D1C28784A
:102500007E2802DC28782028D7DABDE8F88300008E
:1025100070B504460E462EB14FF400611748FFF720
:102520005CFB04E04FF400611448FFF754FB002506
:102530001BE04FF400511148FFF74DFB04F0800001
:1025400028B14FF400410D48FFF747FB04E04FF47A
:1025500000410A48FFF73FFB4FF400510748FFF7DF
:102560003CFB6006040E681CC5B2082DE1DB4FF48D
:1025700000610248FFF731FB70BD0000000C014014
:1025800008B54C484088801F05283BD2DFE800F0A2
:102590000E0319242F004848007800EB40004749FB
:1025A00001EB80004078444908702BE042480078F5
:1025B00000EB4000414901EB800080783E49087003
:1025C00020E03D48007800EB40003C4901EB8000F2
:1025D000C0783949087015E03748007800EB4000B2
:1025E000364901EB80000079334908700AE032482F
:1025F000007800EB4000314901EB800040792E4922
:10260000087000BF00BF2C48007848B92C480078FB
:1026100030B100203F237F2201460090FFF7DCFC11
:102620002548007801281ADB23480078082816DCA2
:1026300023480078012801DA012000E00020204929
:102640000978082901DD012100E00021084330B1AB
:1026500000203F237F2201460090FFF7BDFC164873
:10266000007809281ADB144800780D2816DC144875
:102670000078092801DA012000E0002010490978DB
:102680000D2901DD012100E00021084330B10020C7
:102690003F237F2201460090FFF79EFC0649097800
:1026A00001EB4101054A02EB810188688047FFF791
:1026B00061FD08BD5800002064000020BC5D0008DA
:1026C000650000202DE9F0478048008803F02EF9CE
:1026D0007F4908607F48007838B1084601687E4825
:1026E00003F074FA7D4908602EE07D48407BF0B924
:1026F0007B48D0F801003230B0F5C87F07DD744860
:102700000168784803F062FA744908601CE0744973
:10271000D1F8011001F1320003F0F0F804466C48E2
:102720000168204603F052FA6C4908600CE06C49DD
:10273000D1F8010003F0E2F804466548016820463C
:1027400003F044FA6549086067496448006803F08B
:1027500001FA04D265480088654908609AE0654935
:102760005E48006803F0F6F94AD2634801684FF00A
:10277000804003F023F9824658480168504603F030
:102780001AFA80465D480168404602F04BFF074652
:102790005B4801685B48006803F010F981463946E0
:1027A00003F00CF90546584801685648006803F0E4
:1027B00005F9814649480168484603F0FFF8074695
:1027C0004D4801684548006803F000FA81464D48CD
:1027D0000168484603F0F2F88046394602F022FFCD
:1027E0000646294602F01EFF044603F04BF847490F
:1027F00008603F480068096808443D49086049E0AE
:102800003D4801684FF0804003F0D8F882463348D5
:102810000168504603F0CFF905463848016828465C
:1028200002F000FF80463A4801683A48006803F029
:10283000C5F88146414603F0C1F8044636480168B0
:102840003448006803F0BAF88146244801684846D5
:1028500003F0B4F80546284801682048006803F0F2
:10286000B5F981462B480168484603F0A7F8804631
:10287000294602F0D7FE0746214602F0D3FE06465F
:1028800003F000F821490860194800680968084405
:10289000174908601648006814490988884203DD12
:1028A000124800881249086011480068002802DABE
:1028B00000200F4908601048006810490860074868
:1028C00000680D490860BDE8F0870000080000209E
:1028D0008C050020620000200000C8427C0500201A
:1028E000040E00200000C84300004842900500206C
:1028F0005C0500200000F0418005002084050020D8
:102900006C0500206405002068050020600500209B
:1029100078050020700500207405002010B500F037
:10292000FBFF0B4908800B48007828B90A4800785B
:1029300010B9FFF7C7FE02E0002008490860074809
:10294000006881B24FF0804000F073FC10BD0000C1
:1029500008000020630000200C0000205C0500201F
:102960000A480B4908604FF07C500A4908604FF054
:102970007E50094908604FF07C50084908600848BB
:10298000084908600848094908607047000030415C
:1029900064050020680500206C05002070050020FB
:1029A0009A99193F740500200000C0407805002066
:1029B0007047000001460020034A506820F4404060
:1029C00008435060704700000010024029B1064AD9
:1029D000D2690243044BDA6104E0034AD2698243BC
:1029E000014BDA61704700000010024029B1064A2D
:1029F00092690243044B9A6104E0034A926982435C
:102A0000014B9A61704700000010024029B1064A4C
:102A1000D2680243044BDA6004E0034AD26882437E
:102A2000014BDA60704700000010024030B5002111
:102A30000022002400232D4D6D6805F00C0121B10A
:102A4000042905D0082923D105E0294D056022E09D
:102A5000274D05601FE0254D6D6805F47012234D6C
:102A60006D6805F48034022505EB92421CB9214DB6
:102A7000554305600BE01D4D6D6805F400351DB133
:102A80001C4D5543056002E0194D5543056002E0B9
:102A9000174D056000BF00BF144D6D6805F0F001D3
:102AA0000909154D6B5C0568DD4045600F4D6D688B
:102AB00005F4E061090A104D6B5C4568DD408560F6
:102AC0000A4D6D6805F46051C90A0B4D6B5C456891
:102AD000DD40C560054D6D6805F44041890B074D2B
:102AE0006B5CC568B5FBF3F5056130BD00100240B5
:102AF00000127A0000093D0024000020340000206C
:102B000010B5FFF79FF80024E2E0C4EBC40072495F
:102B100001EB8000007D30B1012822D0032848D08D
:102B200004287CD18EE0C4EBC4006B4901EB80002B
:102B3000807C01280DD10121C4EBC400664A02EB60
:102B4000800001750021C4EBC40002EB80004175D8
:102B500006E00021C4EBC4005F4A02EB800041752F
:102B6000B3E0C4EBC4005C4901EB8000807C012829
:102B700012D10321C4EBC400574A02EB8000017557
:102B8000C4EBC40002EB800041750021C4EBC4001B
:102B900002EB800041740BE00021C4EBC4004E4AFC
:102BA00002EB80000175C4EBC40002EB80004175AC
:102BB0008BE0C4EBC400484901EB8000807C012815
:102BC0000DD00021C4EBC400434A02EB8000017524
:102BD0000221C4EBC40002EB8000417531E0C4EB7C
:102BE000C4003D4901EB8000807C012822D1C4EB68
:102BF000C40001EB8000407C401CC1B2C4EBC400A7
:102C0000354A02EB800041741E2913DB0421C4EB1A
:102C1000C40002EB80000175C4EBC40000E053E087
:102C200002EB800041750021C4EBC40002EB800080
:102C3000417406E00021C4EBC400274A02EB800087
:102C4000417542E0C4EBC400234901EB8000807C65
:102C500001280DD00021C4EBC4001F4A02EB800004
:102C600001750221C4EBC40002EB800041752AE02B
:102C7000C4EBC400184901EB8000807C01281BD103
:102C8000C4EBC40001EB8000407C401CC1B2C4EB2B
:102C9000C400114A02EB800041741E290CDB0421A0
:102CA000C4EBC40002EB800041750021C4EBC400FA
:102CB00002EB8000417406E00021C4EBC400064A28
:102CC00002EB8000417500E000BF00BF601CC4B291
:102CD000012CFFF61AAF10BDE809002030B50346FD
:102CE0000C461546002207E0184600F008F824F8C4
:102CF00012009B1C501C82B2AA42F5DB30BD01467B
:102D0000088870472DE9F05F80468A461746B8F17B
:102D1000006F02D33348804501D3BDE8F09FFEF732
:102D20003DFEA8F1006B4FEA9B25CBF34809C9F59E
:102D30000074A74200DC3C464DE04FF0006101EB1F
:102D400085208A142849FFF7C9FF00260BE009EB0C
:102D50000600254931F810004FF6FF71884200D077
:102D600003E0701C86B2A642F1DB00BFA6421BDA6C
:102D70004FF0006101EB8520FEF7A6FD002608E07C
:102D80003AF8160006EB0901174A22F81100701CE8
:102D900086B2A642F4DB4FF0006101EB85208A1475
:102DA000114900F023F804E022465146404600F065
:102DB0001DF8A74200D10FE06D1C4FF000090AEB8F
:102DC000440AA044381B87B2B7F5007F02DD4FF4F8
:102DD000007400E03C46B0E700BFFEF7B5FD00BF61
:102DE0009BE7000000000108E80500202DE9F04104
:102DF00005460E461746002407E036F8141028460C
:102E0000FEF7ACFDAD1C601C84B2BC42F5DBBDE836
:102E1000F081704710B500F001F810BD0CB500202E
:102E2000019000903348006840F4803031490860D8
:102E300000BF3048006800F4003000900198401C4A
:102E40000190009818B90198B0F5A06FF1D1294808
:102E5000006800F4003010B10120009001E0002073
:102E600000900098012843D12348006840F01000EA
:102E7000214908600846006820F003000860084601
:102E8000006840F0020008601A484068194948602C
:102E90000846406848600846406840F480604860E2
:102EA0000846406820F47C1048600846406840F4BA
:102EB000E81048600846006840F08070086000BF75
:102EC0000C48006800F000700028F9D009484068FC
:102ED00020F00300074948600846406840F00200BF
:102EE000486000BF0348406800F00C000828F9D192
:102EF0000CBD00000010024000200240042808D150
:102F00004FF0E021096941F004014FF0E022116126
:102F100007E04FF0E021096921F004014FF0E022C1
:102F2000116170477047000010B51348006840F009
:102F300001001149086008464068104908400E49E0
:102F40004860084600680E4908400B49086008467A
:102F5000006820F4802008600846406820F4FE00E5
:102F600048604FF41F008860FFF754FF4FF0006087
:102F70000449086010BD0000001002400000FFF886
:102F8000FFFFF6FE08ED00E01CB50121194800F036
:102F9000E0F868B3FFF7B4FD002001901FE09DF852
:102FA0000400C0EBC000144901EB8000407D00909C
:102FB0009DF80000032804D1012010490880082052
:102FC00048809DF80000042804D101200B490880A6
:102FD0000A2048809DF80400401CC0B201909DF872
:102FE00004000128DBDB0121024800F0A3F800BF48
:102FF0001CBD000000040040E8090020580000202B
:103000007FB505460C4601210220FFF7DFFCADF835
:103010000850ADF804400020ADF80600ADF80A00F5
:10302000012211460D4800F0A5F801A90B4800F057
:1030300003F91D208DF8000000208DF80100032009
:103040008DF8020001208DF803006846FEF7A6FE09
:103050000121024800F071F87FBD0000000400402B
:103060007FB505460C4601210420FFF7AFFCADF803
:103070000850ADF804400020ADF80600ADF80A0095
:10308000012211460C4800F075F801A90A4800F029
:10309000D3F81E208DF8000000208DF801000120DB
:1030A0008DF802008DF803006846FEF777FE0121D7
:1030B000014800F042F87FBD0008004010B5012132
:1030C000174800F046F848B30121154800F032F8DF
:1030D00014480088401C13490880088800EBD07110
:1030E0004910A0EB410109B9FFF718FC0D48008811
:1030F000642813DB00200B4908800B480068401C43
:103100000949086009480068401C084908600848E7
:103110000068401C0649086001F002FD10BD000077
:1031200000080040A005002094050020980500201C
:103130009C050020CA430282704721B1028842F0F8
:103140000102028004E002884FF6FE731A400280FA
:10315000704730B50246002000230024158A05EA96
:103160000103958905EA010413B10CB1012000E0C7
:10317000002030BD1AB183890B43838102E083892B
:103180008B4383817047000070B500240022002328
:10319000058C4FF6FE7635400584028C8388048BBF
:1031A0004FF68F752C40B51E2C400D882C43751E94
:1031B0002A400D892A434D882A43144DA8420BD03A
:1031C000134DA84208D0134DA84205D0124DA84275
:1031D00002D0124DA84213D14FF6F7752A404D89FF
:1031E0002A434FF6FB752A408D882A434FF6FF6528
:1031F0002B404FF6FF552B408D892B43CD892B4318
:1032000083800483CD888586028470BD002C0140B4
:1032100000340140004001400044014000480140AA
:103220000A460021018B4FF6F773194011430183C1
:103230007047818670470000002202881D4B98422B
:103240000ED01D4B98420BD0B0F1804F08D01B4BD5
:10325000984205D01A4B984202D01A4B984204D19A
:103260004FF68F731A404B881A43174B984207D07A
:10327000164B984204D04FF6FF431A40CB881A43AE
:1032800002808B8883850B8803850A4B98420BD07C
:10329000094B984208D00E4B984205D00D4B9842EE
:1032A00002D00D4B984201D10B7A03860123838211
:1032B00070470000002C0140003401400004004031
:1032C00000080040000C00400010004000140040C6
:1032D00000400140004401400048014010B540F268
:1032E00025511D4800F04AF810B31B4800F002F9C0
:1032F000C4B21A48008800F40040C8B917480088D2
:1033000000F4804060B10A2C03D0002013490880EB
:1033100020E01248008840F400401049088019E07D
:103320000D2C06D10D48008840F480400B490880E0
:1033300010E00A480088C0F30D0009490C54074802
:103340000088401C0549088008460088C72801DD20
:103350000020088010BD000000380140AC050020AE
:10336000140E002021B1828942F40052828104E0CF
:1033700082894DF6FF731A408281704770B502460C
:10338000002400230025002040F66A16B14200D137
:1033900000BFC1F3421501F01F03012606FA03F333
:1033A000012D02D19689334006E0022D02D1168A02
:1033B000334001E0968A33400C12012606FA04F4E9
:1033C0001688344013B10CB1012000E0002070BD1C
:1033D000F0B50346002400260025002040F66A17B9
:1033E000B94200D100BF1846C1F3421401F01F06D4
:1033F000012707FA06F5012C01D10C3004E0022C5C
:1034000001D1103000E014301AB107682F43076073
:1034100002E00768AF430760F0BD00002DE9F04708
:1034200086B005460E460024A24600BFA1460027EE
:10343000B08900B100BF2F462C8A4CF6FF700440C3
:10344000F08804432C82AC894EF6F3100440B08817
:1034500031890843718908430443AC81AC8A4FF633
:10346000FF400440B0890443AC8201A8FFF7DEFAB4
:103470001F48874202D1DDF810A001E0DDF80CA062
:10348000A88900F4004040B10AEBCA0000EB0A1022
:1034900031684900B0FBF1F807E00AEBCA0000EB25
:1034A0000A1031688900B0FBF1F86420B8FBF0F035
:1034B00004012009642101FB1089A88900F400405F
:1034C00040B1322000EBC900B0FBF1F000F0070082
:1034D000044308E0322000EB09106421B0FBF1F056
:1034E00000F00F0004432C8106B0BDE8F087000017
:1034F0000038014001468888C0F30800704700BFCB
:10350000FEE7490050EAC12018BF04204A0D18BF49
:1035100040F0010040F2FF72B2EB515F08BF40F093
:103520000200012808BF052070472DE9F0414F1E19
:1035300000EBC7010446D1E9000115461E4637F0ED
:1035400006020DD02A46334601F04CFE7F1E04EBE6
:10355000C703D3E9002301F08FFB37F00602F1D156
:10356000022F25D0042F13D0062F18BFBDE8F081FD
:103570002A46334601F036FED4E90A2301F07CFBEB
:103580002A46334601F02EFED4E9082301F074FBED
:103590002A46334601F026FED4E9062301F06CFBEF
:1035A0002A46334601F01EFED4E9042301F064FBF1
:1035B0002A46334601F016FED4E9022301F05CFBF3
:1035C0002A46334601F00EFED4E90023BDE8F0415F
:1035D00001F052BB002213461046014901F008BC1D
:1035E0000000F03F012202F09ABB00221346104671
:1035F000114601F0FDBB30380A2801D20120704786
:103600000020704700BF704710B50B48807B90B119
:1036100000240EE0012009490860782000F05AF8E3
:1036200000200749C1F8A4017D2000F053F8601C78
:10363000C4B2FF2CEEDB10BD040E0020A481214299
:103640000080214210B56FF00400FFF757FC0A48D4
:1036500000680A49B0FBF1F0094908700846007893
:1036600000EB4001C1EBC0104FF6FF7101EAC00052
:103670000449088010BD00001000002000127A00EC
:1036800054000020560000200146114A12884A4387
:103690004FF0E0235A6100229A611A46126942F003
:1036A00001021A6100BF4FF0E022106900F0010230
:1036B0001AB100F48032002AF5D04FF0E0221269EE
:1036C00022F001024FF0E0231A6100229A61704754
:1036D000560000200146114A12784A434FF0E02379
:1036E0005A6100229A611A46126942F001021A6177
:1036F00000BF4FF0E022106900F001021AB100F49F
:103700008032002AF5D04FF0E022126922F0010247
:103710004FF0E0231A6100229A61704754000020A4
:103720001FB501210820FFF761F90920ADF80C0051
:1037300004208DF80F0003208DF80E0003A9144813
:10374000FEF76CF901210846FFF750F9002101202E
:10375000FEF744F90120019000208DF808000820B0
:103760008DF8090001208DF80A0001A8FEF762F823
:1037700006208DF8000002208DF8010001208DF850
:1037800002008DF803006846FEF708FB1FBD00002D
:10379000000C014070B50646002500240948006869
:1037A0000A21B0FBF1F43C20B4FBF0F5C5EB0510A9
:1037B000A4EB800423462A4603A13046FCF736FDDD
:1037C00070BD000094050020253033643A25303266
:1037D000640000002DE9F04F8DB000200C900B909C
:1037E0000A900C210620FEF715FA34490880084695
:1037F000008802F09BF8064631480168304602F026
:10380000DAF904462D48008802F090F806462D4863
:103810000168304602F0D2F80546214601F070FFFB
:103820000C90294801680C9801F06AFF019001F0A2
:10383000CDFE804600F0BAFA06460F4623480068DF
:1038400001F0C4FE32463B46CDE9020101F0CAFC5C
:10385000CDE906011E48006801F0B8FECDE904017B
:10386000DDE9062301F008FA04460D461748016811
:103870001748006802F0A2F8064601F0A7FE2246AB
:103880002B46CDE9080101F0B3FA824601F0C2F9F6
:103890000B900B9801F09AFE06464FF066320D4BE6
:1038A00001F0AAFD044601F0B5F90A900A9802F069
:1038B00005F880B20DB0BDE8F08F00005000002088
:1038C0003800002044000020480000204000002074
:1038D0003C0000206612714010B500214FF080407E
:1038E000FFF7A7FC4FF4FA70FFF7F4FE0420FEF791
:1038F00077F9044640F6DC70844201DA044804801B
:103900000448006881B24FF08040FFF792FC10BD80
:10391000520000205C0500202DE9F8430025002618
:10392000FFF7DAFF4148008840F21631884214DA86
:103930003E48008801F0FAFF80463D4800233D4A9A
:1039400019460090404600F035FD074601F0B6FFED
:1039500039490988084486B249E03448008840F271
:103960008661884214DA3148008801F0DFFF804622
:1039700032482F4B324A2F490090404600F01AFD42
:10398000074601F09BFF2C490988084486B22EE0C7
:103990002648008840F65431884214DA23480088CB
:1039A00001F0C4FF80462748244B274A2449009051
:1039B000404600F0FFFC074601F080FF1E490988E1
:1039C000084486B213E01948008801F0AFFF804632
:1039D0001E481C4B1E4A1C490090404600F0EAFC61
:1039E000074601F06BFF14490988084486B2002499
:1039F0000CE01849601C31F8100021F81400601C1C
:103A000031F81000284485B2601CC4B2072CF0DBEA
:103A10001048C681C089284485B22846E91705EBBD
:103A20005171CE103046BDE8F883000052000020EE
:103A30000000C842008045440400002000004843C4
:103A400000C0D04400009643004035450000D243FA
:103A500000A07F45BA0500202DE9F0470A21022089
:103A6000FEF7D8F8824601F06EFB06464FF066324C
:103A7000074B01F0B7FB04460022064B01F0B8F9F2
:103A8000804601F0C7F804490860BDE8F0870000EF
:103A90006626424000FEAF40000000202DE9F041C4
:103AA0008AB0A5A000680990A4A00068089002A8A8
:103AB000FFF770FE0020102302AA01460090FEF7D7
:103AC000F3FC9F48006801F081FD064600229D4BF3
:103AD00001F04CFB0BD29A48006801F077FD0646D6
:103AE00032460B4698A105A8FCF7A0FB0AE09448D3
:103AF000006801F06BFD064632460B4694A105A80E
:103B0000FCF794FB0120102305AA0021009034202B
:103B1000FEF7CAFC9048D0F8012090A107A8FCF756
:103B200085FB0020102307AA014600905820FEF7CD
:103B3000BBFC002010210B46894ACDE9001001464C
:103B40007020FEF7C1F901200F237F221946009053
:103B50000020FEF741FA8348007800286BD17E49A7
:103B6000D1F80110804A128891420BD17E49098810
:103B70007E4A1288881A002801DB014600E0414293
:103B80000A2903DD79480088774908807249D1F80D
:103B90000110754A1288501A002801DB014600E026
:103BA0004142012904DC6C48D0F801006E490880CC
:103BB0006D480088642190FBF1F084B26A48008867
:103BC00090FBF1F201FB12000A2190FBF1F085B2AB
:103BD0006548008890FBF1F201FB12001FFA80F8A3
:103BE00004EB44004006020E012311210020FEF7E1
:103BF000B1F905EB45004006020E01231121192001
:103C0000FEF7A8F908EB48004006020E0123112137
:103C10003220FEF79FF95648006864214843FF218F
:103C200090FBF1F6102003233246302100904E2005
:103C3000FEF7F0FB27E0012010234EA21121009097
:103C40000020FEF731FC012010234AA22121009020
:103C50000020FEF729FC0120102349A2302100900A
:103C60000020FEF721FC0120032309AA1621009061
:103C70000C20FEF7B5FB0120022308AA28210090A2
:103C80001520FEF7ADFB102002230090404802886B
:103C900018214E20FEF7BEFB012010210B46304AB2
:103CA000CDE9001018215E20FEF70EF939480078A2
:103CB00018B92C480078012812D101200F211023B7
:103CC000354ACDE9001018217020FEF7FDF80120DB
:103CD000102332A2302100906820FEF7E5FB27E098
:103CE0002F48007890B101200F2110232A4ACDE9F6
:103CF000001018217020FEF7E7F80120102329A2F8
:103D0000302100906820FEF7CFFB11E001200F2149
:103D10001023254ACDE9001018217020FEF7D4F8B1
:103D2000012010231FA2302100906820FEF7BCFB69
:103D30000AB0BDE8F08100002A2B2C002D2E0000D7
:103D4000000000200000244025312E3266000000D3
:103D500025322E3166000000040E0020256400008C
:103D60009E0000200C0000206000002008000020C1
:103D70005C05002020202020202020202020000082
:103D80002020202020202020202020202000000093
:103D90000400002063000020DA0000204F464600A7
:103DA00062000020204F4E00BE0000202DE9F04DA3
:103DB000C84A002490B0914205DA21F000439342B2
:103DC00001D805D120B110B0BDE8F04DFFF70ABC15
:103DD000B1F5801F1BDA53EA000209D0002911DA7D
:103DE0000120FCF740FB10B0BDE8F04DFFF7FDBB34
:103DF0000220FCF738FBFFF7EDFB10B081F000412B
:103E0000BDE8F08D6FF03504362201F088FF04EB39
:103E10002152C1F31308B049A2F2FF33414401F427
:103E2000801282F07F6103EB225281F040510092B8
:103E300041EA08010022A94B01F0DEFA044608F12C
:103E40000200A74EC0F313000D467E44032867D23C
:103E5000D6E90023204601F023F91ED1009800285E
:103E600002BFD6E9000110B0BDE8F08D01F054F9B1
:103E700007460C469B4A9C4B01F0B4F906460D469A
:103E80009A4A9B4B3846214601F0ACF910B03246B5
:103E90002B46BDE8F04D00F0EFBE4FF05532954B8C
:103EA0002046294601F09EF90022934B01F098FA32
:103EB00006460F4622462B461046194601F092F957
:103EC00032463B4601F08EF9064600980F46F0B1A7
:103ED00001F022F980468A46824A834B01F082F93A
:103EE00032463B4601F07CFA22462B4601F084FA2A
:103EF00005460C467D4A7E4B4046514601F072F91C
:103F000010B02A462346BDE8F04D01F075BA0B46C5
:103F100010B0324620462946BDE8F04D01F06CBA9B
:103F200000224FF08043204600F0A6FE02460B46DA
:103F30002046294600F05CFF06460F46009801F037
:103F4000EBF8CDE9040132463B461046394601F014
:103F500049F90C9069480C9A4044019009910B462C
:103F6000104601F03FF98246024665488B46C8F18B
:103F700051080B4608F5D72803217844FFF7D5FAF6
:103F800052465B4601F02EF90A905E480D9152466A
:103F90005B4604217844FFF7C8FA099B0C9A01F0AC
:103FA00021F9844601980D9B40EA080860460A9A68
:103FB00000F062FE83460891B8F1000F4EDD4FF02D
:103FC000FF322046294601F0AAFE22462B4601F088
:103FD00009F9804600988A4660B3DDE90401414A48
:103FE000414B01F0FFF8099100905A464046514676
:103FF000089B00F041FE32463B4601F0F3F8099B76
:10400000009A00F039FE4246534601F0E9F9224693
:104010002B4601F0F1F904460D46DDE90401334A6F
:10402000334B01F0DFF810B022462B46BDE8F04DCF
:1040300001F0E2B95A464046089B00F01DFE3246A8
:104040003B4601F0CFF84246534601F0C9F910B0A3
:1040500022462B46BDE8F04D01F0C2B9009840B3AE
:10406000DDE904011F4A204B01F0BCF880468A4676
:104070005A4620462946089B01F0BEF932463B4687
:1040800001F0B0F84246534601F0B6F922462B46FD
:1040900001F0B2F904460D46DDE90401134A144B60
:1040A00001F0A0F810B022462B46BDE8F04D01F01B
:1040B000A3B90B465A462046294601F09DF93246DF
:1040C0003B4601F08FF810B022462B46BDE8F04D7C
:1040D00001F086B90000F07F645F09000000F03F46
:1040E000C2380000763C7935EF39EA3D0000E0FE49
:1040F000422EE63F5555D53F0000E03F86EBF9FFE5
:104100005A370000583700001CB5FDF71BFEFFF7BB
:1041100099FA4FF4A060FDF779FE4FF4E13000F01A
:1041200013FD472144F61F60FEF76AFFFDF7C2FA50
:10413000FDF756FAFDF7BCFDFDF76CFF00F0D4FC6F
:10414000FEF70EFC40F2CF216320FEF789FFFDF75A
:1041500067FE012040218023824ACDE90010002122
:104160000846FDF7B1FEFEF705F84FF47A70FFF749
:104170008BFAFFF72FFB7C490880084600887B49B3
:10418000088000207A4908700BE078480088794957
:10419000774A127821F8120075480078401C74495B
:1041A0000870734800780828EFDB00203F237F2247
:1041B00001460090FDF710FFD2E06F4800886421AF
:1041C00090FBF1F201FB1200002855D1FFF702FB32
:1041D00065490880FFF740FC63480088322804DB0B
:1041E000664800886049088003E05F4800886349AA
:1041F0000880002500240CE06149601C31F81000A3
:1042000021F81400601C31F81000284485B2601CAD
:10421000C4B20E2CF0DB5448008859498883084604
:10422000808B284485B20F2095FBF0F04E49088022
:1042300008460088052808DB08460088322804DC88
:1042400000205049087050490870474800880528E8
:1042500003DB45480088322807DD4B48007820B949
:1042600048480078401C47490870464800780828AC
:1042700002DB0120444908704448007860B93E4898
:1042800000884FF4487190FBF1F201FB120018B95D
:10429000FFF704FCFDF76EFF3D48008880B300F097
:1042A000ADF8FFF7B1F93A484088082810D13748EF
:1042B000007868B93748007838B10020354908706F
:1042C000354908603549086002E00120314908702D
:1042D0003348007820B10020314908702F49086028
:1042E0002A4800782F490870002029490880FEF7E5
:1042F00047F92D48006882B22C492D48FEF702FD8F
:104300002A48D0F8050000280EDD2848D0F805001E
:10431000C0EB001000EB80001F490968B1EBC00F33
:1043200002D901201B4908702048D0F80900002854
:104330000EDD1E48D0F80900C0EB001000EB800035
:1043400016490968B1EBC00F02D901201449087061
:1043500009480088401C084908806420FFF7BAF922
:104360002BE7000055010020040000200800002079
:104370000E000020BA0500200A00002006000020E0
:10438000CA0500200D0000200C0000206400002061
:104390005800002062000020980500209C050020A5
:1043A0006300002065000020A4050020040E00200A
:1043B00004FC00082DE9FC5F06460F4614461D4626
:1043C000DDF830803946204601F000FC2946019096
:1043D000404601F0FBFB83463946304601F0F6FBD0
:1043E0005946009001F0EAFA8246019901F088F9F5
:1043F0008146294601F016F9BDE8FC9F62484088D5
:10440000062843D161480078072823D005DC48B14D
:1044100005280FD0062838D114E0082823D00D280D
:1044200033D129E05A48D0F80100401D5849C1F85D
:1044300001002AE05648D0F80500401C5449C1F854
:10444000050022E05248D0F80900401C5049C1F84C
:1044500009001AE04E48407B08B9012000E0002026
:104460004B49487311E04A48807B08B9012000E0BD
:1044700000204749887308E04548C07B08B90120FF
:1044800000E000204249C87300BF43E03F48007885
:10449000072823D005DC48B105280FD0062838D1DD
:1044A00014E0082823D00D2833D129E03848D0F86B
:1044B0000100401F3649C1F801002AE03448D0F815
:1044C0000500401E3249C1F8050022E03048D0F80E
:1044D0000900401E2E49C1F809001AE02C48407B13
:1044E00008B9012000E000202949487311E028485C
:1044F000807B08B9012000E000202549887308E08E
:104500002348C07B08B9012000E000202049C8737F
:1045100000BF00BF1E48D0F80100B0F5C87F04DD21
:104520004FF4C8701A49C1F801001948D0F80100C9
:10453000962803DA96201649C1F801001448D0F8ED
:1045400005003C2803DD3C201149C1F80500104856
:10455000D0F80500002803DA00200D49C1F8050055
:104560000B48D0F809003C2803DD3C200849C1F87D
:1045700009000748D0F80900002803DA00200449A0
:10458000C1F80900704700005800002064000020B6
:10459000040E002010B58AB004464EA000680790B3
:1045A0004DA0006806904DA0006805904CA00068E2
:1045B0000390207810234BA2002100900846FDF7BD
:1045C00073FF2078042307AA002100901020FDF734
:1045D00007FF4548D0F8052044A108A8FBF726FEB0
:1045E0002079102308AA002100905820FDF75CFFD5
:1045F000607810233FA2194600900020FDF754FF79
:104600006078042306AA102100900846FDF7E8FE12
:104610003548D0F8092035A108A8FBF707FE6079D6
:10462000102308AA194600905820FDF73DFFA078F6
:10463000102331A2202100900020FDF735FFA07843
:10464000042305AA202100901020FDF7C9FE26486A
:10465000407B30B10A208DF810000B208DF811003E
:1046600005E00C208DF810000D208DF81100A079C8
:10467000022304AA202100905820FDF7B1FEE07823
:1046800010231EA2302100900020FDF70DFFE078DE
:10469000032303AA302100901020FDF7A1FE124849
:1046A000807B50B1E0790E211023154ACDE900102E
:1046B00032215820FDF708FC09E0E0790E21102393
:1046C000104ACDE9001032215820FDF7FDFB0AB059
:1046D00010BD0000000102030405020306070809DB
:1046E0000E0F1000312E0000040E0020252D326424
:1046F0006D696E00322E0000332E0000342E000053
:10470000660000208200002010B588B0044633A067
:104710000068079032A00068069032A103C9CDE975
:10472000040132A0006803902078102330A20021F9
:1047300000900846FDF7B8FE2078042303AA002164
:1047400000901020FDF74CFE2A48C07B50B1207924
:104750000E211023284ACDE9001000215820FDF732
:10476000B3FB09E020790E211023244ACDE9001083
:1047700000215820FDF7A8FB6078102320A21946DD
:1047800000900020FDF790FE6078062304AA102117
:1047900000900846FDF724FEA078102319A22021DE
:1047A00000900020FDF780FEA078042306AA2021B7
:1047B00000901020FDF714FEE078102312A23021A3
:1047C00000900020FDF770FEE078022307AA302158
:1047D00000901020FDF704FE08B010BD1F2000005F
:1047E0001B1C1D1E1718191A131400001112131484
:1047F000352E0000040E0020FA00002016010020D3
:10480000362E0000372E0000382E00001CB504A103
:1048100003C9CDE900016846FFF7BCFE1CBD0000DE
:1048200001010100010101011CB504A103C9CDE989
:1048300000016846FFF7AEFE1CBD0000010101004B
:10484000010101001CB504A103C9CDE900016846BE
:10485000FFF7A0FE1CBD00000100010101010101E4
:104860001CB504A103C9CDE900016846FFF792FE1B
:104870001CBD000001000101010001011CB504A1E3
:1048800003C9CDE900016846FFF73EFF1CBD0000EB
:10489000010100010100000000B585B032A00068F0
:1048A000049032A00068039031A00068029031A00B
:1048B0000068019000203F237F2201460090FDF711
:1048C0008BFB0120022302AA002100900846FDF77D
:1048D00087FD0120102328A2002100902020FDF751
:1048E000E3FD0120022301AA002100903020FDF702
:1048F00077FD0120022303AA102100900020FDF77C
:104900006FFD012010231DA2194600902020FDF705
:10491000CBFD0120022304AA202100900020FDF7F6
:104920005FFD0120102319A2202100900846FDF709
:10493000BBFD0120102317A2302100900020FDF7BD
:10494000B3FD012010232722302100901846FDF7E7
:10495000D5FC0120102310A2302100902020FDF76B
:10496000A3FD05B000BD00002526000023240000A3
:1049700021220000282900003A2000003A2032308D
:1049800032302E31312E3035000000003A205631C1
:104990002E320000515100003A203130393139397E
:1049A00036363334000000001CB504A103C9CDE93C
:1049B00000016846FFF7EEFD1CBD0000010100018B
:1049C000010101011CB504A103C9CDE9000168463C
:1049D000FFF7E0FD1CBD0000010100010101000125
:1049E0001CB504A103C9CDE900016846FFF78CFEA0
:1049F0001CBD000001000101010000001CB50120E8
:104A00000E211023044ACDE9001012217220FDF777
:104A10005BFA00F055F81CBD660000201CB504A12F
:104A200003C9CDE900016846FFF76EFE1CBD00001A
:104A300001010100010000001CB504A103C9CDE97A
:104A400000016846FFF7A6FD1CBD00000001010142
:104A5000010101011CB504A103C9CDE900016846AB
:104A6000FFF798FD1CBD00000001010100010101DC
:104A70001CB504A103C9CDE900016846FFF744FE57
:104A80001CBD000000010101010000001CB504A1D3
:104A900003C9CDE900016846FFF736FE1CBD0000E2
:104AA000000101010000000010B50246012000E0F5
:104AB00050430B1EA1F10104E1B2F9D110BD000079
:104AC0001120084908704FF48C70C1F801000520CE
:104AD000C1F805001420C1F809000120487388734B
:104AE000C8737047040E002010B50A48006882B2EF
:104AF00009490A48FEF7F2F807480078112808D05B
:104B0000FFF7DEFF0348006882B203490348FEF75F
:104B1000F9F810BDA4050020040E002004FC0008D4
:104B20000549096888B230B90021044A1170044A65
:104B30001160044A11607047200121426200002088
:104B4000980500209C05002010B586B00446012180
:104B500044F20400FDF74AFF4FF40070ADF8140072
:104B600003208DF8160018208DF8170005A91C48A1
:104B7000FCF754FF4FF48060ADF8140004208DF86A
:104B8000170005A91648FCF749FF25208DF80000FD
:104B900003208DF801008DF8020001208DF803003C
:104BA0006846FDF7FBF801940020ADF80800ADF869
:104BB0000A00ADF80C00ADF810000C20ADF80E00A6
:104BC00001A90848FEF72AFC012240F225510548B8
:104BD000FEF7FEFB01210348FEF7C4FB06B010BD43
:104BE000000801400038014010B500290AD00878BB
:104BF000002807D005487844FBF7F4FF002801D0CF
:104C0000002010BD0248784410BD0000D62B0000E3
:104C1000CE2B000021F00042A2F16052B2F5801FBD
:104C200001F0004328BFD2F17F6C0BD95FEA001C72
:104C300043EAC20242EB507018BF704728BF20F011
:104C400001007047B2F5801FBCBF184670474FEA9D
:104C5000410C1CF5001F02D2084600F076BF70B56B
:104C600000F06AFB00000089FFF7F6BF4FF000403C
:104C7000A0F580007047000010B591EA030F48BF0F
:104C800083F0004300F1C083841A71EB030C05D25A
:104C9000121943EB0C03001B61EB0C01DFF824E15C
:104CA0004FEA1154A4EB135C1EEA430F18BF9EEAAF
:104CB000445F73D023EA0E03DCF1200E21EA045195
:104CC00043F4801332D322FA0CFE10EB0E0023FAC9
:104CD0000CFE41EB0E01CCF1200E03FA0EFE10EBA0
:104CE0000E0051F10001B1F5801FCCF1200E32D23F
:104CF00001EB045112FA0EF2BDE8104058BF7047A4
:104D0000401C38BF5FEA420218BF7047002814BF3A
:104D100020F0010041F100014FEA410313F5001FAB
:104D200038BF7047A1F1C04100F054BB012A43EBEA
:104D30000302ACF1200CDCF11F0E32BF4FF0000E6D
:104D400023FA0CF310EB030041EB0451B4EB115FB9
:104D5000D0D0A1EB045101F5801149085FEA300081
:104D600001EB04510ED350F1000038BF12FA0EFED1
:104D700008D1BDE81040C9E7401C38BF5FEA4202D5
:104D8000CAD1C3E7BDE810404FEA410313F5001F45
:104D900038BF7047A1F1C04100F01CBB9EEA445FE0
:104DA00008D011EA5E0FBDE8104004BF01F00041D9
:104DB00000207047BDE8104070B500F0BDFA00BF9C
:104DC00064FBBE3E0000E0FF02494FF0000000F02F
:104DD00074BF00BF0000F87F491058BFC1F14041C7
:104DE0005B1058BFC3F140438B42EFF30080704724
:104DF0002DE9C04130B4DFF8A0C23CEA111418BF5D
:104E00003CEA131400F0EC8081EA03051CEA11145B
:104E100044EAD57418BF1CEA131500F0C780A4EB50
:104E200005044FF0004545EAC12145EAC32341EAA4
:104E3000505143EA525304F17F74994204F500340F
:104E40004FEAC0204FEAC22208BF904200F09C8087
:104E50004FEA13650FF24016765D4FEA134506FBE5
:104E600005F7C7F1807706FB07F74FEAD737A7FBAF
:104E700003687642C8F58038A7FB06CE38BFA8F194
:104E8000010807FB08E64FF0000EA6FB028CE6FBCC
:104E900003CEDCF1000CCEF1004E38BFAEF1010EB6
:104EA000A6FB0C584FF000074FF00005E6FB0E87FD
:104EB000A1FB08C6A0FB07CE16EB0E0645F10005C8
:104EC000E1FB076515F1E04E7EBFA4F580345FEA93
:104ED00046066D4116F1800745F100054FEA172798
:104EE0004FEA066647EA0567A6F1DE46B6F1805F3F
:104EF0004FEA15251FD9384624F0010C05EBC47183
:104F0000BCF1FE6F01EB0C1102D8F0BCBDE80081D2
:104F100024425CBF01F5801E9EEAC47F02D4F0BC2F
:104F2000BDE80081244238D4F0BCA1F1C041BDE805
:104F3000004100F04FBA4FEAD22242EA43524FEA10
:104F4000D323A7FB02864FEAD02040EA415007FB5B
:104F500003661EEA0E0F4FEAD12105FB026658BF19
:104F6000A6EB0056B6EB00564FEA520E4EEAC37E51
:104F700018EB0E0E56EB530EBDD518EB02085E4132
:104F80007F1C55F10005B6E74FF480154FF0000780
:104F90004FF000064FF00008ADE7F0BC4FF0000006
:104FA00001F1C04101F00041BDE8008111EA0C1F90
:104FB0000CEA131500D00CE013EA0C1F00F025805A
:104FC0004FF00000F0BC81EA030101F00041BDE8B0
:104FD0000081F0BCBDE8004181EA030100F0FAB9AC
:104FE000F0BCBDE8004170B500F0A6F9097EFC3EBA
:104FF00000F007B881EA03014FF0000001F0004122
:10500000704781EA030100F0E5B9F0BCBDE800415A
:105010004FF0000021497047FFFDFBF9F7F5F4F26E
:10502000F0EEEDEBE9E8E6E4E3E1E0DEDDDBDAD843
:10503000D7D5D4D3D1D0CFCDCCCBCAC8C7C6C5C4A1
:10504000C2C1C0BFBEBDBCBBBAB9B8B7B6B5B4B3B8
:10505000B2B1B0AFAEADACABAAA9A8A8A7A6A5A4A3
:10506000A3A3A2A1A09F9F9E9D9C9C9B9A99999867
:105070009797969595949393929191908F8F8E8E0A
:105080008D8C8C8B8B8A8989888887878685858497
:1050900084838382828181800000FF070000F87F83
:1050A00051EA030C17D41CF5801F58BFBCF5801FB4
:1050B00000F10680994218BF704708BF90427047C0
:1050C00007D711F5801F58BF13F5801F19D49942D7
:1050D0007047894270471CF5801F08D5BCF5801FBA
:1050E000F7D58B4218BF704708BF824270474FF414
:1050F000001C1CEB410F38BF1CEB430F01D28B424D
:10510000704770B500F018F9922449004FF0005133
:105110004FF08053FFF760BE10F0004248BF40429E
:10512000B0FA80F310FA03F10AD0C3F11D0303F5BE
:1051300080634FEA415002EB035202EBD1217047EA
:105140004FF000007047B0FA80F310FA03F10AD074
:10515000C3F11D0303F580634FEA41504FEA035248
:1051600002EBD12170474FF00000704751EA030C69
:1051700017D41CF5801F58BFBCF5801F00F10680B6
:10518000994218BF704708BF9042704707D711F582
:10519000801F58BF13F5801F19D499427047894268
:1051A00070471CF5801F08D5BCF5801FF7D58B42D2
:1051B00018BF704708BF824270474FF4001C1CEBB9
:1051C000410F38BF1CEB430F01D28B42704770B5C3
:1051D00000F0B2F8922449004FF000514FF0805394
:1051E000FFF7FABDDFF848C170B51CEA111E1EBFFB
:1051F0001CEA13159EEA0C0F95EA0C0F00F06F8065
:1052000081EA030423EA4C134EEAD47E21EA4C11CE
:1052100041F4801143F48013AE44A1FB024CA0FB87
:105220000365AEF17F7E361955EB0C05A1FB034CEF
:105230004CF10003A0FB021C16EB0C06654153F178
:105240000003094218BF46F0010613F4007F0BD19A
:105250004FEA03314FEA0530340341EA155140EA81
:1052600016506FF003020AE04FEAC3214FEAC5204F
:10527000F40241EA555140EA56506FF0020202EB47
:105280002E4201EB025585EACE710AD05FEA440C4A
:1052900018BF24F0004450F1000041F1000120EA61
:1052A000D47040F2FE7C624500D270BDA84214BFAB
:1052B0004FF080444FF04044002E08BF0024BEF160
:1052C000806FA8BFA1F1C041BDE8704080F282802C
:1052D0004FF0000001F1C04101F0004170479EEA2B
:1052E0000C0F0CEA131518BF95EA0C0F06D04FF0FF
:1052F000000081EA030E0EF0004170BD00F01CF8C2
:105300008900013E00F007B800F009B84FEA430CED
:105310005FEA5C5C08D081EA030100F05BB84FEA09
:10532000410C5FEA5C5CF6D14FF000000149704728
:105330000000FF070000F87F0EF1020E2EF0030EB2
:105340005EF8046B364205D4012A43EB030515F5DC
:10535000001F12D8012841EB010C1CF5001F0CD8CE
:105360000ED14FEAD17C15F5001F0CEB4C0C0CF163
:10537000020C08BF4CEBD37C04E04FF0080C01E0BA
:105380004FEAD37C0CEB4C0526FA05F606F007062F
:10539000B6F1040C06D20EEB860CBDE870404CF062
:1053A000010C6047DFE80CF0090B02024FF00041EE
:1053B0004FF00000A1F5002170BD194610460128EC
:1053C00051EB010418BFD4F5001484BF002001F094
:1053D000004170BD0808A0F500114FEA3101704787
:1053E00091EA030F10B581F000413FF54DAC83F019
:1053F000004300F009B8000010B591EA030F48BF60
:1054000083F000433FF540AC841A71EB030C07D2E4
:1054100012198CF0004C43EB0C03001B61EB0C01E8
:10542000DFF8A4E14FEA1154A4EB135C1EEA430F2A
:1054300018BF9EEA445F00F0B08023EA6E03524238
:1054400021EA0451C3EB6E0338BF5B1EDCF1200E72
:1054500025D322FA0CFE10EB0E0043FA0CFE41EBB2
:105460000E01CCF1200E03FA0EFE10EB0E0051F1EE
:105470000001CCF1200E29D412FA0EF201EB0451F6
:10548000BDE8104058BF7047401C1CBFB2F1004F30
:10549000704700280CBF491C20F00100704712EB38
:1054A000020E43EB030218BF4FF0010E4EEA420218
:1054B000ACF1200CDCF11E0E54D943FA0CFE10EBBB
:1054C0000E0051F1FF31CCF11E0ED5D50EF1010EBB
:1054D00012FA0EFE404141EB010101EB445C5FEA30
:1054E0005C5C10D910EBDE7001EB045138BFBEF1EB
:1054F000004FBDE8104018BF704700280CBF491C82
:1055000020F00100704730D24FEAD42C11F5001181
:1055100024F400641BD0B1FA81F20B3AA41AA41E41
:10552000D2F12003914030FA03F31943904001EB8C
:10553000CC71002C01EB0451BDE81040A8BF7047AE
:1055400001F1C0414FF0000001F000417047B0FA96
:1055500080F310FA03F100D110BDE41A173C48059E
:10556000C90AE4E701EB045110BD491001EB0451F5
:10557000BDE810404FEA300002E04FF000017047F4
:105580004A0008BF0042F8D0B2F5001F28BF70479C
:1055900001F000414FF0000070479EEA445F07D0E1
:1055A00011EA5E0FBDE8104004BF002100207047E3
:1055B000BDE8104070B5FFF7BFFE00BF40DFF63E0C
:1055C00083F00041104670470000E0FF43004FEABF
:1055D000D30C4FEA3C0C43401FBF40070CF1605115
:1055E00013F0FE4F70471CF0006F03D100200CF049
:1055F000004170470CF0004343EA507010B540EA98
:10560000CC0000F05CFA00BF000000924FEA0001FD
:10561000FFF7E0BE4FF000414FF00000A1F5002180
:105620007047000090EA010F48BF81F0004100F18F
:10563000D482421A3CBF801A89184FEAD0524FF0E8
:105640007F4C1CEA410FA2EBD15318BF9CEA026FBA
:1056500000F03B804FF0004C4CEA00204CEA012166
:1056600021FA03FC10EB0C0C1ED202F1FF325FEAB0
:105670001C2040EBC25038BF70471CF07F0F4FEA30
:10568000400C18BFBCF17F4F38BF7047C3F12003F7
:10569000994008BF20F00100BCF17F4F38BF704730
:1056A000A0F1C04000F051BA4FEA3C00000A40EBC4
:1056B000C25028BF1CF0FF0F4FEA400CE6D018BFC5
:1056C000BCF17F4F38BF7047EAE79CEA026F05D014
:1056D00010EA5C0F08BF00F00040704710B500F002
:1056E000EEF900BF64FBBE3E401058BFC0F1404021
:1056F000491058BFC1F140418142EFF3008070472B
:105700004FF47F0C1CEAD0121EBF1CEAD11392EAA0
:105710000C0F93EA0C0F00F0858090EA010F48BF50
:1057200042F4807240F4000C41F400002CF07F4100
:1057300020F07F4000B58142A2EB03020FF2081C6B
:10574000ACEB504EC0F100009EF800E04FEA4E0E68
:1057500000FB0EFC38BF49004FEA2C1C02F5FA0290
:105760000CFB0EF34FEACE1E4FEA112C4FEAC1217B
:105770000EEB635E42EB22420EFB0CFC4FEA1C5325
:1057800000FB03114FEA112C4FEA01310EFB0CFC18
:105790004FEADC4C00FB0C11C14228BF09184CEB4E
:1057A00003335DF804EB10EB410143EBC250B2F55B
:1057B0007C0F38BF704729D512F0F00F1CBF00F1E5
:1057C000C04000F000407047008182838485868756
:1057D00088898B8C8D8E8F919293959697999A9CB0
:1057E0009D9FA0A2A3A5A7A8AAACAEB0B2B3B5B71F
:1057F000B9BCBEC0C2C5C7C9CCCED1D4D7D9DCDFF5
:10580000E2E6E9ECF0F3F7FAFE0000004FEA400CA4
:105810000CF1807CBCF17E4F28BF7047B0F1C040D6
:1058200000F093B990EA010F0CEAD11348BF42F49B
:105830008072624538BF634507D213F47F0F16D0DC
:1058400080EA010000F00040704710B500F037F921
:10585000097EFC3E00F005B880EA010000F000403F
:10586000704780EA010000F0004000F06EB912F4C9
:105870007F0F04BF0248704780EA010000F065B95D
:105880000000C07F41000B0ED3F19E0208D950F4F6
:1058900000034FEA032323FA02F048BF4042704757
:1058A00010B500F00CF900BF499224800020704729
:1058B0006FF0004282EA200070470000C10DD1F174
:1058C0009E0206DB4FEA002343F0004323FA02F076
:1058D0007047004207D54FEA4001B1F1FE4F02D2B6
:1058E0004FF00000704710B500F0E9F849922480AD
:1058F000002070476FEA20007047000010F0004160
:1059000048BF4042B0FA80F310FA03F2C3F19D039E
:105910000BD051EAC35101EB1220530638BF704738
:1059200000F1010008BF20F001007047B0FA80F3D9
:1059300010FA03F2C3F19D030AD0D90501EB12203E
:10594000530638BF704700F1010008BF20F0010086
:105950007047000050EA010C00F113801CF5000FA5
:1059600058BFBCF5000F01D48842704707D710F527
:10597000000F58BF11F5000F15D4884270478942B7
:1059800070471CF5000F04D5BCF5000FF7D5814218
:1059900070474FF0807C1CEB400F38BF1CEB410F71
:1059A00001D28142704710B500F089F89224490075
:1059B0004FF000504FF08051FFF796BE4FF47F0C30
:1059C0001CEAD0121EBF1CEAD11392EA0C0F93EA14
:1059D0000C0F00F0478090EA010F48BF42F480723C
:1059E0004FF0004C4CEA00204CEA012102EB03028C
:1059F000A0FB0113A2F50002002918BF43F0010328
:105A00005B0028BF4FEA330342EB22425FEA132CCC
:105A10004CEBC2502EBFBCEB436FB2F57C0F70470E
:105A20004FEA036CBCF1004F08BF20F00100B2F553
:105A30007C0F38BF70470BD582F0FF0212F5803F14
:105A4000C8BF704700F1C040D8BF00F000407047A9
:105A500000F5000C5FEA4C0C48BF7047B0F1C04045
:105A600000F073B890EA010F0CEAD11348BF42F47A
:105A70008072624538BF634504D280EA010000F0BD
:105A80000040704710B500F01AF800BF8900013ED1
:105A900000F007B800F009B85FEA410C5FEA1C6C3F
:105AA00008D080EA010000F050B85FEA400C5FEADD
:105AB0001C6CF6D14FF00040A0F5800070470EF14D
:105AC000020E2EF0030E5EF8044B244204D44FEA7B
:105AD0004102B2F17F4F11D84FEA4003B3F17F4F3B
