:020000040800F2
:10000000D8140020D1010008D9010008DB01000844
:10001000DD010008DF010008E10100080000000028
:10002000000000000000000000000000E3010008E4
:10003000E501000800000000E7010008E9010008F0
:10004000EB010008EB010008EB010008EB010008E0
:10005000EB010008EB010008D9090008EB010008DA
:10006000EB010008EB010008EB010008EB010008C0
:10007000EB010008EB010008EB010008EB010008B0
:10008000EB010008EB010008EB010008EB010008A0
:10009000EB010008EB010008EB010008EB01000890
:1000A000EB010008EB010008EB010008EB01000880
:1000B000EB01000889220008C1230008EB010008B9
:1000C000EB010008EB010008EB010008EB01000860
:1000D000EB010008B1250008EB010008EB01000866
:1000E000EB010008EB010008EB01000800F002F84A
:1000F00000F05FF80AA090E8000C82448344AAF163
:100100000107DA4501D100F054F8AFF2090EBAE860
:100110000F0013F0010F18BFFB1A43F0010318473B
:1001200050630000706300000A444FF0000C10F8A8
:10013000013B13F0070408BF10F8014B1D1108BF65
:1001400010F8015B641E05D010F8016B641E01F805
:10015000016BF9D113F0080F1EBF10F8014BAD1C55
:100160000C1B09D16D1E58BF01F801CBFAD505E073
:1001700014F8016B01F8016B6D1EF9D59142D6D3CD
:10018000704700000023002400250026103A28BFF5
:1001900078C1FBD8520728BF30C148BF0B607047F9
:1001A000642900F07F80002070471FB51FBD10B587
:1001B00010BD00F0F3F91146FFF7F7FF03F03AF82E
:1001C00000F011FA03B4FFF7F2FF03BC02F06EFB7C
:1001D0000948804709480047FEE7FEE7FEE7FEE7DB
:1001E000FEE7FEE7FEE7FEE7FEE7FEE70448054917
:1001F000054A064B7047000029220008ED00000860
:10020000D80E0020D8140020D8100020D8100020CC
:10021000704700000FB4044910B503AA029800F01B
:100220009FF910BC5DF814FB0C0000200FB41CB546
:10023000074B06AA7B4469460090059800F077F9C1
:100240000020694600F086F91CBC5DF814FB000034
:100250001D03000070B5044685690068C10601D51C
:10026000302600E02026C00707D070BDD4E9012168
:1002700030469047206A401C20626D1EF6D570BD46
:1002800070B5044685690078C00707D170BDD4E910
:10029000012120209047206A401C20626D1EF6D567
:1002A00070BD00002DE9F041064600241068752954
:1002B000314616A510D0AFF30080002802DA404284
:1002C00013A507E031688A0701D512A502E04907A6
:1002D00004D511A5012401E0AFF3008000210A221A
:1002E00006F1240709E0B0FBF2FCB0FBF2F302FBDD
:1002F0001C00303078541846491C0028F3D123469E
:100300002A463046BDE8F04100F0B3B800000000D6
:100310002D0000002B000000200000002DE9F05F00
:10032000894604464FF0000ADFF824B1FB44C0F8C8
:1003300020A02046E168884700287DD0252806D0E7
:10034000D4E901219047206A401C2062F1E7002592
:100350005F462046E16888472028064607DB312EA5
:1003600005D2B81910F8200C08B10543F1E7A80729
:1003700001D525F00405C4F81CA00027C4F818A076
:100380002A2E09D0304602F08AFA38B304EB8708E7
:10039000303EC8F8186019E059F8041B204604EBF9
:1003A00087029161E1688847012F064618D1E0690C
:1003B000002820DA25F020051DE0D8F8180000EB11
:1003C000800006EB40003038C8F818002046E1688D
:1003D0008847064602F063FA0028EED1012F0AD0C2
:1003E0002E2E08D12046E16888477F1C0646022F42
:1003F00045F02005C4DBA069002803DA404245F03F
:100400000105A061E80701D025F01005A6B1A6F10D
:100410004100192802D8203645F400654A46314685
:10042000204625604D46FFF7BBFE60B1012807D08E
:10043000ED1D25F0070000E007E000F1080978E76E
:1004400005F1040975E730467AE7206ABDE8F09FB8
:10045000E8600000704770477047704710B500F0C3
:1004600091F8006810BD10B5044600F08BF80460E8
:1004700010BD2DE9F0470D4699469246044600F11D
:1004800024080168880604D5E06921F01001216084
:1004900000E00120A84201DD471B00E00027A16920
:1004A0007A1902EB0900081AA0612078C00602D46C
:1004B0002046FFF7CFFE002608E0D4E901211AF814
:1004C00006009047206A401C761C20624E45F4DBF3
:1004D0002078C0060AD52046FFF7BCFE06E0D4E926
:1004E000012130209047206A401C2062381EA7F16D
:1004F0000107F4DC07E0D4E9012118F80500904772
:10050000206A401C2062281EA5F10105F3DC20466C
:10051000FFF7B6FE2078000602D50220BDE8F0877E
:100520000120FBE701694A1C02610878704700B5A9
:100530008FB0CDE901310021059105497944CDE91C
:10054000031011466846FFF7E9FE0FB000BD00003A
:10055000E5FFFFFF0A6802F8010B0A607047000020
:10056000074B70B50D467B44FFF7E1FF0446284674
:1005700000F00CF810B14FF0FF3070BD204670BD98
:10058000D324000000487047740E0020007B00F068
:100590008000704700487047740E00207546FFF7D2
:1005A000F9FFAE4605006946534620F00700854630
:1005B00018B020B5FFF71AFEBDE820404FF0000646
:1005C0004FF000074FF000084FF0000B21F007013B
:1005D000AC46ACE8C009ACE8C009ACE8C009ACE87E
:1005E000C0098D46704710B50446AFF30080204621
:1005F000BDE81040FFF7E6BD21B1826842F001027C
:10060000826003E0826822F001028260704700008D
:1006100010B504461248844208D10121401501F06A
:1006200077FB0021601501F073FB17E00D48844251
:1006300008D10121001501F06BFB0021201501F00C
:1006400067FB0BE00848844208D10121C80301F090
:100650005FFB00214FF4004001F05AFB10BD000089
:100660000024014000280140003C014001460020D8
:100670008A6802F004020AB1012000E000207047FD
:100680000146C86C80B270470246002013680B40D8
:100690000BB1012000E000207047014600208A686D
:1006A00002F008020AB1012000E0002070470000BB
:1006B00030B502460020002350680F4C20400D79D1
:1006C0000C6844EA05242043506090680B4C20409D
:1006D000D1E902542C434D7944EA4504204390600B
:1006E000D06A20F470000C7C641EE4B2234340EA1C
:1006F0000350D06230BD0000FFFEF0FFFDF7F1FFB8
:10070000F0B504460D4600200021092D11DDE068FA
:10071000A5F10A0606EB4607072606FA07F1884305
:10072000A5F10A0606EB460603FA06F10843E06067
:100730000CE0206905EB4507072606FA07F1884318
:1007400005EB450603FA06F108432061072A0FDA94
:10075000606B561E06EB86071F2606FA07F18843D4
:10076000561E06EB860605FA06F10843606322E092
:100770000D2A0FDA206BD61F06EB86071F2606FA16
:1007800007F18843D61F06EB860605FA06F10843F3
:10079000206310E0E06AA2F10D0606EB86071F2633
:1007A00006FA07F18843A2F10D0606EB860605FA64
:1007B00006F10843E062F0BD816841F00801816004
:1007C000704721B1826842F4A002826003E082682F
:1007D00022F4A00282607047816841F004018160C8
:1007E0007047000000B587B00121042001F080FAB5
:1007F0005020ADF8180003208DF81A0000208DF865
:100800001B0006A9274800F0C5FA4FF48070ADF828
:10081000180004208DF81B0006A9224800F0BAFA3F
:100820000121480201F064FA4FF4004001F044FA5B
:100830001D48FFF7EDFE002001908DF808008DF8AF
:1008400009004FF4602003900020049001208DF8EF
:10085000140001A91448FFF72BFF072301220421EC
:100860001148FFF74DFF0723012206210E48FFF72D
:1008700047FF01210C48FFF7BFFE0B48FFF79CFF25
:1008800000BF0948FFF709FF0028FAD10648FFF723
:10089000A3FF00BF0448FFF7E9FE0028FAD107B024
:1008A00000BD0000000801400024014008B50121FE
:1008B000082001F01DFA4FF40070ADF80000102080
:1008C0008DF8030003208DF802006946044800F00B
:1008D00061FA4FF40071024800F039FB08BD0000D6
:1008E000000C0140F8B5054600246DE0C4EBC400DF
:1008F000374901EB800005EB0413D3E90162196865
:10090000DB68C0E90162C3600160C4EBC401304A26
:1009100002EB8101C868012101F0EAF9C4EBC400CF
:100920002B4901EB800000892DF82400C4EBC400A2
:1009300011F82000694601EB8401C8706A4602EB99
:100940008401C4EBC402224B03EB8202506800F026
:1009500021FA0120C4EBC4011D4A02EB8101087495
:100960000021C4EBC40002EB80004174C4EBC4005E
:1009700002EB80008174C4EBC400114611F8200022
:10098000482806D10021C4EBC40002EB8000C174EA
:1009900006E00121C4EBC4000D4A02EB8000C174E3
:1009A0000021C4EBC4000A4A02EB80000175C4EBCD
:1009B000C40002EB800041750649C4EBC40002EBA1
:1009C00080008161601CC4B2012C8FDBF8BD000087
:1009D00048060020C910000810B5052001F0A8FF46
:1009E00001206A49088001F063FF6948006869498D
:1009F000D1F80C11884246D10620644948806648E7
:100A00000078072823D005DC48B105280FD0062838
:100A100038D114E0082823D00D2833D129E05F48CD
:100A2000D0F80100401D5D49C1F801002AE05B4893
:100A3000D0F80500401C5949C1F8050022E057488C
:100A4000D0F80900401C5549C1F809001AE0534884
:100A5000407B08B9012000E000205049487311E0B4
:100A60004E48807B08B9012000E000204B49887384
:100A700008E04A48C07B08B9012000E0002047494F
:100A8000C87300BF46E007204049488042480078CC
:100A9000072823D005DC48B105280FD0062838D117
:100AA00014E0082823D00D2833D129E03B48D0F8A2
:100AB0000100401F3949C1F801002AE03748D0F849
:100AC0000500401E3549C1F8050022E03348D0F842
:100AD0000900401E3149C1F809001AE02F48407B47
:100AE00008B9012000E000202C49487311E02B4890
:100AF000807B08B9012000E000202849887308E0C5
:100B00002648C07B08B9012000E000202349C873B3
:100B100000BF00BF2148D0F80100B0F5C87F04DD58
:100B20004FF4C8701D49C1F801001C48D0F80100FD
:100B3000642803DA64201949C1F801001748D0F885
:100B400005003C2803DD3C201449C1F8050013488A
:100B5000D0F80500002803DA00201049C1F805008C
:100B60000E48D0F809003C2803DD3C200B49C1F8B1
:100B700009000A48D0F80900002803DA00200749D4
:100B8000C1F80900012000F00BF810BD1200002090
:100B9000008121420080214268040020640E002070
:100BA00001490860704700001404014000212349F6
:100BB0008279002A3AD00A46126803689A430B46A3
:100BC0001A600A1D126803689A430B1D1A600279A5
:100BD00011440A6803681A430A60184A0832126806
:100BE00003689A43154B08331A601A1D126803688C
:100BF0009A43124B0C331A604279102A0ED11A1FF5
:100C0000126803681A430D4B08331A601A1D1268E4
:100C100003681A43094B0C331A600DE00749427907
:100C200011440A6803681A430A6005E00279114416
:100C30000A6803689A430A60704700000004014094
:100C400030B5044604254FF4302000F06FF8054617
:100C5000042D17D10C48006940F002000A490861D0
:100C600008464461006940F0400008614FF43020BC
:100C700000F05CF805460448006941F6FD71084043
:100C800001490861284630BD0020024004200B497C
:100C9000C96801F0010109B101200EE00749C968E6
:100CA00001F0040109B1022007E00449C96801F01C
:100CB000100109B1032000E0042070470020024029
:100CC0000348006940F08000014908617047000056
:100CD0000020024070B504460D460426F00200F0E4
:100CE00025F80646042E11D10948006940F001009C
:100CF000074908612580F00200F018F8064604480C
:100D0000006941F6FE71084001490861304670BD36
:100D10000020024002480349486003484860704789
:100D20002301674500200240AB89EFCD00B50246A4
:100D30000423FFF7ABFF034603E0FFF7A7FF0346DB
:100D4000521E012B01D1002AF7D102B90523184602
:100D500000BD000030B500228B071C0F0F2303FAE3
:100D600004F20B4B8C1053F824309343084C8D1035
:100D700044F8253023468C1053F824308C07240F78
:100D800000FA04F42343024C8D1044F8253030BDA2
:100D9000080001402DE9F041024600250026002010
:100DA00000230024002791F803C00CF00F0591F8F0
:100DB00003C00CF0100CBCF1000F03D091F802C07E
:100DC0004CEA050591F800C0BCF1000F31D0146861
:100DD00000202BE04FF0010C0CFA00F3B1F800C03A
:100DE0000CEA03069E4220D183004FF00F0C0CFA50
:100DF00003F7BC4305FA03FC4CEA040491F803C072
:100E0000BCF1280F06D14FF0010C0CFA00FCC2F81F
:100E100014C00AE091F803C0BCF1480F05D14FF0AF
:100E2000010C0CFA00FCC2F810C0401C0828D1D3F9
:100E30001460B1F800C0BCF1FF0F34DD546800202D
:100E40002EE000F1080C4FF0010808FA0CF3B1F89D
:100E500000C00CEA03069E4221D183004FF00F0C24
:100E60000CFA03F7BC4305FA03FC4CEA040491F8BE
:100E700003C0BCF1280F05D100F1080C08FA0CF8EA
:100E8000C2F8148091F803C0BCF1480F07D100F1FB
:100E9000080C4FF0010808FA0CF8C2F81080401C4A
:100EA0000828CED35460BDE8F0810000F0B50A46B2
:100EB000002300240021002500F00046B6F1004F79
:100EC00002D11D4EF16901E01B4E7168C0F303456C
:100ED00083B200F44016B6F5401F08D121F07061CE
:100EE000154E766826F07066134F7E6012E000F4AF
:100EF0008016B6F5801F06D1032606FA05F4A14335
:100F000041F0706106E0460D360103FA06F6B14382
:100F100041F0706122B1460D360103FA06F6314305
:100F200000F00046B6F1004F02D1034EF16101E03E
:100F3000014E7160F0BD000000000140024600203B
:100F400093680B400BB1012000E000207047416125
:100F5000704701617047000010B504460723012265
:100F600021460948FFF7CCFB01210748FFF729FC80
:100F700000BF02210448FFF787FB0028F9D0024890
:100F8000FFF77EFB10BD00000024014070B5002477
:100F90002DE0C4EBC400174901EB8000007C00B9D0
:100FA00023E0C4EBC400134901EB8005C4EBC4008B
:100FB00001EB8000866995E80F00B047C4EBC401DF
:100FC0000C4A02EB8101C97C884206D10121C4EBA5
:100FD000C40002EB8000817406E00021C4EBC40071
:100FE000044A02EB8000817400BF601CC4B2012C73
:100FF000CFDB70BD4806002000B589B0012108464E
:1010000000F066FE0121042000F072FE0120ADF820
:10101000200018208DF8230003208DF8220008A955
:101020001748FFF7B7FE17480088401E80B2ADF89A
:10103000180040F2CF20ADF814000020ADF81A00DF
:10104000ADF8160005A94FF0804001F05FFA60206E
:10105000ADF804000120ADF806000020ADF80C004A
:1010600001A94FF0804001F0F9F90821C80601F00C
:1010700041FA0121880701F0CAF909B000BD00005A
:1010800000080140540000201FB501F09DFC0B4BEF
:101090000FCB8DE80F006846FFF724FC01210846BE
:1010A00000F026FE01210648FFF700FF05484068D2
:1010B00020F02000034948601FBD0000A04B00083D
:1010C00000023000002004E01FB5BDF808100198B0
:1010D000FFF734FF04B010BD70B5002100230F22CC
:1010E000C47804B3154C246804F4E064C4F5E064E7
:1010F000210AC1F10403CA40447804FA03F1847858
:101100001440214309010E4C0678A155047804F0DF
:101110001F050124AC4005786D11AD0005F1E025F7
:10112000C5F8004109E0047804F01F050124AC4033
:10113000044D0678761145F8264070BD0CED00E0B0
:1011400000E400E080E100E002490143024A11604E
:10115000704700000000FA050CED00E070B50024B7
:1011600019E004F1B001C8B2002100F06FFB0021CA
:10117000084600F06BFB0021102000F067FB002503
:1011800005E00121002000F061FB681CC5B2802D44
:10119000F7DB601CC4B2082CE3DB70BDF0B514466D
:1011A00000267F2801DC3F2900DDF0BD0B46CF176C
:1011B00001EB5777FF10C7F10707FAB2CF1701EB22
:1011C0005777FF10A1EBC707FDB2C5F10707012351
:1011D000BB40DEB24CB10A4B03EBC0039B5C334314
:1011E000074F07EBC007BB5408E0054B03EBC003F8
:1011F0009B5CB343024F07EBC007BB5400BFD4E76F
:10120000640A00202DE9F04F06460C461746984622
:10121000A346002530E017F805904FF0000A25E0BE
:1012200009F0800028B1214630460A9AFFF7B6FF40
:1012300009E00A9808B9012000E000200246214692
:101240003046FFF7ABFF4FF6FF7000EA4909601C1C
:10125000C4B2A4EB0B010998814203D15C46701C17
:10126000C6B206E00AF101001FFA80FABAF1080FCF
:10127000D6DB00BF681C85B2099908FB01F0C117D5
:1012800000EB5171B5EBE10FC5DBBDE8F08F00005D
:101290002DE9F04F07460C4690461D46A346002612
:1012A00031E01B4800EB481010F806904FF0000AA0
:1012B00023E009F0800028B12A4621463846FFF78E
:1012C0006DFF08E00DB9012000E000200246214634
:1012D0003846FFF763FF4FF6FF7000EA4909601CCC
:1012E000C4B2A4EB0B00322803D15C46781CC7B211
:1012F00006E00AF101001FFA80FABAF1080FD8DB04
:1013000000BF701C86B2B02ECBDBBDE8F08F0000B2
:10131000385600082DE9F04706460F469046994694
:10132000DDF820A034460CE03D4606E05246294652
:101330002046FFF733FF681CC5B24D45F6DD601C43
:10134000C4B24445F0DD00F0B3F8BDE8F08700001A
:1013500008B50121082000F0CBFC4FF43C40ADF86B
:10136000000010208DF8030003208DF8020069466C
:101370004E48FFF70FFD4FF42C414C48FFF7E9FDB5
:101380004FF480514948FFF7E2FD4FF48061474830
:10139000FFF7DFFD642001F0CBFA4FF48061434892
:1013A000FFF7D5FDC82001F0C3FA4FF480613F4834
:1013B000FFF7CFFD0021AE2000F048FA00210846DB
:1013C00000F044FA0021102000F040FA00214020F3
:1013D00000F03CFA0021812000F038FA0021CF20F3
:1013E00000F034FA0021A12000F030FA0021C020E2
:1013F00000F02CFA0021A62000F028FA0021A820F5
:1014000000F024FA00213F2000F020FA0021D32030
:1014100000F01CFA0021084600F018FA0021D5203F
:1014200000F014FA0021802000F010FA0021D920E9
:1014300000F00CFA0021F12000F008FA0021DA2077
:1014400000F004FA0021122000F000FA0021DB2055
:1014500000F0FCF90021402000F0F8F900212020E4
:1014600000F0F4F90021022000F0F0F900218D20B5
:1014700000F0ECF90021142000F0E8F90021A4208C
:1014800000F0E4F90021A62000F0E0F90021AF20EF
:1014900000F0DCF90021AF2000F0D8F9FFF75EFE84
:1014A0000021084600F02AF808BD0000000C0140A9
:1014B00070B500241CE004F1B001C8B2002100F0B6
:1014C000C5F90021084600F0C1F90021102000F004
:1014D000BDF9002508E0084901EBC501085D0121BF
:1014E00000F0B4F9681CC5B2802DF4DB601CC4B2F6
:1014F000082CE0DB70BD0000640A002070B50446D3
:101500000D4605F1B001C8B2002100F09FF910218D
:1015100041EA1410002100F099F904F00F0141F0A4
:101520000100002100F092F970BD00002DE9F84F94
:1015300080460F4616461C46BA462046E31704EB83
:101540005373DB1021464FEAE47C04EB5C7C4FEAEA
:10155000EC0CA4EBCC0CBCF1000F02D04FF0010C52
:1015600001E04FF0000C6344224604EBD27C4FEACA
:101570006C0C03FB0CF303F0FF0BA6F12000C6B2CA
:1015800000254EE00C2C07D106EB4600274901EB65
:101590008000405D009013E0102C05D1244800EB42
:1015A0000610405D00900BE0182C07D106EBC6003A
:1015B000204901EB8000405D009001E0BDE8F88F1C
:1015C0004FF0000927E0009800F0800028B139466C
:1015D00040460A9AFFF7E2FD09E00A9808B901209F
:1015E00000E00020024639464046FFF7D7FD00984C
:1015F0004006000E0090781CC7B2A7EB0A00A0427C
:1016000005D1574608F1010000F0FF0806E009F196
:10161000010000F0FF09B9F1080FD4DB00BF681C1E
:10162000C5B25D45AEDB00BFC8E70000B04B0008A7
:1016300024500008145600082DE9FE4F06460D46BA
:1016400017461C46DDF830A001952046E21704EB52
:101650005272D2102146E31704EB5373DB10A4EB54
:10166000C3030BB1012300E000231A446243D2B24A
:1016700000920C2C05D107EB4700254901EBC0096E
:101680000AE0102C03D1234800EB471904E007EBD4
:10169000C700214901EBC0094FF0000832E019F8FA
:1016A00008B00020029025E00BF0800028B1E9B2DC
:1016B000F0B25246FFF772FD0AE0BAF1000F01D115
:1016C000012300E000231A46E9B2F0B2FFF766FDFD
:1016D0004FEA4B604FEA106B681C85B20198281ADC
:1016E000A04203D1019D701C86B206E00298401C06
:1016F000C0B2029002980828D6DB00BF08F10100B2
:1017000000F0FF0800988045C9DBBDE8FE8F0000AF
:10171000B85D0008D05D0008106300082DE9F843AB
:101720000546884616461F46DDF8209000240BE04B
:10173000CDF80090325D05EB041188B210234146CC
:10174000FFF77AFF601CC4B2BC42F1DBBDE8F8834E
:101750002DE9FF4F81B0074691461E460E9D4FF082
:10176000000A002439E0301B401EC1B20A2002F0FA
:10177000FBF8B9FBF0F00A21B0FBF1F201FB120813
:10178000BAF1000F16D1701EA04213DDB8F1000FA0
:101790000ED10120AB4605EBDB71491001FB047152
:1017A0000090C8B22B4620220299FFF7BFFE12E03C
:1017B0004FF0010A0120AB4605EBDB71491001FB3C
:1017C00004710090C8B208F13001CAB22B460299E8
:1017D000FFF7ACFE00BF601CC4B2B442C3DB05B06F
:1017E000BDE8F08F2DE9F84306460F4615461C4626
:1017F000DDF8208021E004EBD4714910C1F18001B3
:10180000B14202DA00263819C7B2C4F14000B8422A
:1018100004DA002006460746FFF7A0FCCDF800805A
:101820002A78234639463046FFF780FE204604EBEF
:10183000D07106EB6101CEB26D1C28787E2802DCE7
:1018400028782028D7DABDE8F883000070B5044670
:101850000E462EB14FF400611748FFF77AFB04E003
:101860004FF400611448FFF772FB00251BE04FF4B2
:1018700000511148FFF76BFB04F0800028B14FF4D2
:1018800000410D48FFF765FB04E04FF400410A48B2
:10189000FFF75DFB4FF400510748FFF75AFB600666
:1018A000040E681CC5B2082DE1DB4FF4006102484C
:1018B000FFF74FFB70BD0000000C014008B54C481D
:1018C0004088801F05283BD2DFE800F00E03192472
:1018D0002F004848007800EB4000474901EB8000AA
:1018E0004078444908702BE04248007800EB400003
:1018F000414901EB800080783E49087020E03D4876
:10190000007800EB40003C4901EB8000C078394989
:10191000087015E03748007800EB4000364901EBCD
:1019200080000079334908700AE03248007800EB03
:101930004000314901EB800040792E49087000BF1A
:1019400000BF2C48007848B92C48007830B10020FE
:101950003F237F2201460090FFF7DCFC25480078FA
:1019600001281ADB23480078082816DC2348007871
:10197000012801DA012000E0002020490978082927
:1019800001DD012100E00021084330B100203F23A8
:101990007F2201460090FFF7BDFC16480078092819
:1019A0001ADB144800780D2816DC14480078092842
:1019B00001DA012000E00020104909780D2901DD3D
:1019C000012100E00021084330B100203F237F22A5
:1019D00001460090FFF79EFC0649097801EB4101A2
:1019E000054A02EB810188688047FFF761FD08BD69
:1019F00012000020680400205863000869040020D9
:101A00002DE9F0477848008802F08CFE774908609D
:101A10007748007838B108460168764802F0D2FF6E
:101A2000754908601FE07548407B78B97349D1F863
:101A3000011001F1320002F05DFE04466B480168BE
:101A4000204602F0BFFF6C4908600CE06B49D1F8FA
:101A5000010002F04FFE044664480168204602F08F
:101A6000B1FF6549086063496348006802F06EFF92
:101A700004D263480088634908609AE062495E487E
:101A8000006802F063FF4AD2604801684FF080406E
:101A900002F090FE824658480168504602F087FFE7
:101AA00080465B480168404602F0B8FC074659484A
:101AB00001685948006802F07DFE8146394602F00F
:101AC00079FE0546554801685348006802F072FEE9
:101AD000814649480168484602F06CFE07464B487B
:101AE00001684548006802F06DFF81464A48016878
:101AF000484602F05FFE8046394602F08FFC0646FB
:101B0000294602F08BFC044602F0B8FD4449086007
:101B10003C480068096808443A49086049E03B4885
:101B200001684FF0804002F045FE8246324801686D
:101B3000504602F03CFF044635480168204602F05A
:101B40006DFC8046374801683748006802F032FE75
:101B50008146414602F02EFE06463448016832486E
:101B6000006802F027FE814623480168484602F0DB
:101B700021FE0446254801681F48006802F022FF44
:101B8000814629480168484602F014FE80462146F5
:101B900002F044FC0746314602F040FC054602F0E4
:101BA0006DFD1F4908601748006809680844154919
:101BB00008601448006812490988884203DD10480B
:101BC0000088104908600F480068002802DA0020E9
:101BD0000C4908600D4800680D4908600648006817
:101BE0000A490860BDE8F08702000020500000208C
:101BF000660400200000C84240000020640E00205F
:101C000054000020200000200000F041440000208B
:101C10004800002030000020280000202C00002078
:101C2000240000203C000020340000203800002068
:101C300010B500F0E3FF094908800948007810B9A1
:101C4000FFF7DEFE02E00020064908600548006854
:101C500081B24FF0804000F056FC10BD0200002021
:101C600067040020200000200A480B4908604FF05C
:101C70007C500A4908604FF07E50094908600548C9
:101C80000849086008480949086009480949086086
:101C90007047000000003041280000202C00002088
:101CA00030000020340000200000404038000020B8
:101CB0000000A0403C00002001460020034A50687C
:101CC00020F440400843506070470000001002407C
:101CD00029B1064AD2690243044BDA6104E0034A9F
:101CE000D2698243014BDA61704700000010024064
:101CF00029B1064A92690243044B9A6104E0034AFF
:101D000092698243014B9A617047000000100240C3
:101D100029B1064AD2680243044BDA6004E0034A60
:101D2000D2688243014BDA60704700000010024025
:101D300030B500210022002400232D4D6D6805F0F0
:101D40000C0121B1042905D0082923D105E0294D32
:101D5000056022E0274D05601FE0254D6D6805F404
:101D60007012234D6D6805F48034022505EB924214
:101D70001CB9214D554305600BE01D4D6D6805F400
:101D800000351DB11C4D5543056002E0194D55430A
:101D9000056002E0174D056000BF00BF144D6D687F
:101DA00005F0F0010909154D6B5C0568DD404560E3
:101DB0000F4D6D6805F4E061090A104D6B5C4568D4
:101DC000DD4085600A4D6D6805F46051C90A0B4D10
:101DD0006B5C4568DD40C560054D6D6805F44041AC
:101DE000890B074D6B5CC568B5FBF3F5056130BD2C
:101DF0000010024000127A0000093D006C0500202E
:101E00007C05002010B5FFF7C1F80024E2E0C4EB28
:101E1000C400724901EB8000007D30B1012822D05E
:101E2000032848D004287CD18EE0C4EBC4006B4961
:101E300001EB8000807C01280DD10121C4EBC4009E
:101E4000664A02EB800001750021C4EBC40002EB7E
:101E50008000417506E00021C4EBC4005F4A02EB3C
:101E600080004175B3E0C4EBC4005C4901EB800025
:101E7000807C012812D10321C4EBC400574A02EB35
:101E800080000175C4EBC40002EB800041750021A5
:101E9000C4EBC40002EB800041740BE00021C4EBF2
:101EA000C4004E4A02EB80000175C4EBC40002EB93
:101EB000800041758BE0C4EBC400484901EB800011
:101EC000807C01280DD00021C4EBC400434A02EB02
:101ED000800001750221C4EBC40002EB8000417553
:101EE00031E0C4EBC4003D4901EB8000807C012857
:101EF00022D1C4EBC40001EB8000407C401CC1B285
:101F0000C4EBC400354A02EB800041741E2913DB88
:101F10000421C4EBC40002EB80000175C4EBC400D3
:101F200000E053E002EB800041750021C4EBC400E7
:101F300002EB8000417406E00021C4EBC400274A94
:101F400002EB8000417542E0C4EBC400234901EB81
:101F50008000807C01280DD00021C4EBC4001F4A02
:101F600002EB800001750221C4EBC40002EB80008B
:101F700041752AE0C4EBC400184901EB8000807C65
:101F800001281BD1C4EBC40001EB8000407C401C45
:101F9000C1B2C4EBC400114A02EB800041741E2997
:101FA0000CDB0421C4EBC40002EB8000417500216E
:101FB000C4EBC40002EB8000417406E00021C4EBD6
:101FC000C400064A02EB8000417500E000BF00BF7C
:101FD000601CC4B2012CFFF61AAF10BD48060020E9
:101FE00030B503460C461546002207E0184600F0BF
:101FF00008F824F812009B1C501C82B2AA42F5DBA0
:1020000030BD0146088870472DE9F05F80468A465A
:102010001746B8F1006F02D33348804501D3BDE8BD
:10202000F09FFEF777FEA8F1006B4FEA9B25CBF3FC
:102030004809C9F50074A74200DC3C464DE04FF06A
:10204000006101EB85208A142849FFF7C9FF0026AB
:102050000BE009EB0600254931F810004FF6FF713F
:10206000884200D003E0701C86B2A642F1DB00BFBC
:10207000A6421BDA4FF0006101EB8520FEF7E0FD80
:10208000002608E03AF8160006EB0901174A22F884
:102090001100701C86B2A642F4DB4FF0006101EB28
:1020A00085208A14114900F023F804E022465146A5
:1020B000404600F01DF8A74200D10FE06D1C4FF024
:1020C00000090AEB440AA044381B87B2B7F5007F29
:1020D00002DD4FF4007400E03C46B0E700BFFEF7BD
:1020E000EFFD00BF9BE70000000001086406002030
:1020F0002DE9F04105460E461746002407E036F864
:1021000014102846FEF7E6FDAD1C601C84B2BC42EC
:10211000F5DBBDE8F08110B500F002F810BD00005D
:102120000CB50020019000903348006840F48030E6
:102130003149086000BF3048006800F4003000906A
:102140000198401C0190009818B90198B0F5A06F53
:10215000F1D12948006800F4003010B1012000904E
:1021600001E0002000900098012843D12348006836
:1021700040F01000214908600846006820F0030084
:1021800008600846006840F0020008601A4840688D
:10219000194948600846406848600846406840F46D
:1021A000806048600846406820F47C10486008461B
:1021B000406840F4E81048600846006840F08070CD
:1021C000086000BF0C48006800F000700028F9D0DB
:1021D0000948406820F00300074948600846406805
:1021E00040F00200486000BF0348406800F00C0067
:1021F0000828F9D10CBD0000001002400020024068
:10220000042808D14FF0E021096941F004014FF0A2
:10221000E022116107E04FF0E021096921F004019B
:102220004FF0E0221161704710B51348006840F08C
:1022300001001149086008464068104908400E49ED
:102240004860084600680E4908400B490860084687
:10225000006820F4802008600846406820F4FE00F2
:1022600048604FF41F008860FFF755FF4FF0006093
:102270000449086010BD0000001002400000FFF893
:10228000FFFFF6FE08ED00E01CB50121194800F043
:10229000CAF868B3FFF7B6FD002001901FE09DF873
:1022A0000400C0EBC000144901EB8000407D0090A9
:1022B0009DF80000032804D101201049088008205F
:1022C00048809DF80000042804D101200B490880B3
:1022D0000A2048809DF80400401CC0B201909DF87F
:1022E00004000128DBDB0121024800F08DF800BF6B
:1022F0001CBD000000040040480600201200002021
:102300007FB505460C4601210220FFF7E1FCADF840
:102310000850ADF804400020ADF80600ADF80A0002
:10232000012211460D4800F08FF801A90B4800F07A
:10233000EDF81D208DF8000000208DF8010003202D
:102340008DF8020001208DF803006846FEF7C4FEF8
:102350000121024800F05BF87FBD0000000400404E
:102360007FB505460C4601210420FFF7B1FCADF80E
:102370000850ADF804400020ADF80600ADF80A00A2
:10238000012211460D4800F05FF801A90B4800F04A
:10239000BDF81E208DF8000000208DF801000320FC
:1023A0008DF8020001208DF803006846FEF794FEC8
:1023B0000121024800F02BF87FBD0000000800401A
:1023C00010B501210C4800F02EF8A0B101210A48F7
:1023D00000F01AF809480068401C084908600848DD
:1023E0000068401C0649086006480068401C054912
:1023F000086001F0F5FA10BD000800405800002008
:102400005C00002060000020CA430282704721B1B6
:10241000028842F00102028004E002884FF6FE7357
:102420001A400280704730B5024600200023002485
:10243000158A05EA0103958905EA010413B10CB177
:10244000012000E0002030BD1AB183890B43838155
:1024500002E083898B4383817047000070B50024BC
:1024600000220023058C4FF6FE7635400584028C51
:102470008388048B4FF68F752C40B51E2C400D8839
:102480002C43751E2A400D892A434D882A43144D3A
:10249000A8420BD0134DA84208D0134DA84205D036
:1024A000124DA84202D0124DA84213D14FF6F77533
:1024B0002A404D892A434FF6FB752A408D882A43CE
:1024C0004FF6FF652B404FF6FF552B408D892B4370
:1024D000CD892B4383800483CD888586028470BD9B
:1024E000002C014000340140004001400044014004
:1024F000004801400A460021018B4FF6F77319404E
:1025000011430183704781867047000000220288D2
:102510001D4B98420ED01D4B98420BD0B0F1804F0E
:1025200008D01B4B984205D01A4B984202D01A4B48
:10253000984204D14FF68F731A404B881A43174BB9
:10254000984207D0164B984204D04FF6FF431A40EA
:10255000CB881A4302808B8883850B8803850A4BBE
:1025600098420BD0094B984208D00E4B984205D0A8
:102570000D4B984202D00D4B984201D10B7A038645
:102580000123838270470000002C01400034014089
:102590000004004000080040000C00400010004013
:1025A0000014004000400140004401400048014048
:1025B00010B540F225511D4800F04AF810B31B48F1
:1025C00000F002F9C4B21A48008800F40040C8B90B
:1025D0001748008800F4804060B10A2C03D0002026
:1025E0001349088020E01248008840F40040104958
:1025F000088019E00D2C06D10D48008840F4804079
:102600000B49088010E00A480088C0F30D00094912
:102610000C5407480088401C05490880084600887B
:10262000C72801DD0020088010BD000000380140EF
:10263000100000208005002021B1828942F4005260
:10264000828104E082894DF6FF731A4082817047CF
:1026500070B50246002400230025002040F66A16CB
:10266000B14200D100BFC1F3421501F01F030126A2
:1026700006FA03F3012D02D19689334006E0022DBC
:1026800002D1168A334001E0968A33400C120126AB
:1026900006FA04F41688344013B10CB1012000E0AE
:1026A000002070BDF0B50346002400260025002060
:1026B00040F66A17B94200D100BF1846C1F3421470
:1026C00001F01F06012707FA06F5012C01D10C3095
:1026D00004E0022C01D1103000E014301AB1076878
:1026E0002F43076002E00768AF430760F0BD0000BA
:1026F0002DE9F04786B005460E460024A24600BFED
:10270000A1460027B08900B100BF2F462C8A4CF6A5
:10271000FF700440F08804432C82AC894EF6F3101D
:102720000440B08831890843718908430443AC816F
:10273000AC8A4FF6FF400440B0890443AC8201A844
:10274000FFF7F6FA1F48874202D1DDF810A001E03A
:10275000DDF80CA0A88900F4004040B10AEBCA00E3
:1027600000EB0A1031684900B0FBF1F807E00AEB12
:10277000CA0000EB0A1031688900B0FBF1F8642050
:10278000B8FBF0F004012009642101FB1089A8893D
:1027900000F4004040B1322000EBC900B0FBF1F082
:1027A00000F00700044308E0322000EB0910642128
:1027B000B0FBF1F000F00F0004432C8106B0BDE83F
:1027C000F08700000038014001468888C0F3080007
:1027D00070472DE9F0414F1E00EBC7010446D1E9D7
:1027E000000115461E4637F006020DD02A46334634
:1027F00001F0F4FB7F1E04EBC703D3E9002301F0D3
:1028000085F937F00602F1D1022F25D0042F13D01D
:10281000062F18BFBDE8F0812A46334601F0DEFBE3
:10282000D4E90A2301F072F92A46334601F0D6FBB7
:10283000D4E9082301F06AF92A46334601F0CEFBB9
:10284000D4E9062301F062F92A46334601F0C6FBBB
:10285000D4E9042301F05AF92A46334601F0BEFBBD
:10286000D4E9022301F052F92A46334601F0B6FBBF
:10287000D4E90023BDE8F04101F048B90022134635
:102880001046014901F0FEB90000F03F012202F0BC
:1028900040B9002213461046114601F0F3B9303812
:1028A0000A2801D2012070470020704700BF7047FE
:1028B00010B50B48807B90B100240EE0012009493F
:1028C00008607D2000F05AF800200749C1F8A401F3
:1028D0007D2000F053F8601CC4B2FF2CEEDB10BD6D
:1028E000640E0020A48121420080214210B56FF0C7
:1028F0000400FFF785FC0A4800680A49B0FBF1F0C4
:10290000094908700846007800EB4001C1EBC0108F
:102910004FF6FF7101EAC0000449088010BD0000B5
:102920005805002000127A00060000200800002050
:102930000146114A12884A434FF0E0235A610022AF
:102940009A611A46126942F001021A6100BF4FF003
:10295000E022106900F001021AB100F48032002A6E
:10296000F5D04FF0E022126922F001024FF0E0238F
:102970001A6100229A617047080000200146114A3E
:1029800012784A434FF0E0235A6100229A611A46B6
:10299000126942F001021A6100BF4FF0E022106993
:1029A00000F001021AB100F48032002AF5D04FF095
:1029B000E022126922F001024FF0E0231A610022A6
:1029C0009A617047060000201FB501210820FFF71B
:1029D0008FF90920ADF80C0004208DF80F000320BA
:1029E0008DF80E0003A91448FEF7D4F9012108461A
:1029F000FFF77EF900210120FEF7ACF901200190DC
:102A000000208DF8080008208DF8090001208DF8BD
:102A10000A0001A8FEF7CAF806208DF8000002207F
:102A20008DF8010001208DF802008DF80300684642
:102A3000FEF752FB1FBD0000000C014000BF054A1D
:102A4000128802F04002002AF9D0C2B2014B1B1DCD
:102A50001A80704700380140F8B5074600BF00BF34
:102A600000BF114800680A21B0FBF1F44FF4616027
:102A7000B4FBF0F5B4FBF0F100FB11403C21B0FBDE
:102A8000F1F6C5EB4510C0EB0520A4EB0010C6EB3A
:102A90000611A0EB810433462A4604A1384600946F
:102AA000FDF7C4FBF8BD000058000020253032645B
:102AB0003A253032643A2530326400002DE9F04F77
:102AC0008DB000200C900B900A900620FEF744FA7F
:102AD000334908800846008801F024FE0646314844
:102AE0000168304601F063FF04462D48008801F07C
:102AF00019FE06462C480168304601F05BFE05468B
:102B0000214601F0F9FC0C90284801680C9801F06E
:102B1000F3FC019001F056FC804600F0DDF906461A
:102B20000F462348006801F04DFC32463B46CDE994
:102B3000020101F053FACDE906011E48006801F0D8
:102B400041FCCDE90401DDE9062300F0DFFF044686
:102B50000D46174801681748006801F02BFE06462D
:102B600001F030FC22462B46CDE9080101F08AF83D
:102B7000824600F099FF0B900B9801F023FC06466B
:102B80004FF066320C4B01F033FB044600F08CFF33
:102B90000A900A9801F08EFD80B20DB0BDE8F08F6A
:102BA000500500203805002044050020480500207D
:102BB000400500203C0500206612714010B5002140
:102BC0004FF08040FFF79FFC4FF4FA70FFF7D6FEFE
:102BD0000420FEF7C1F9044640F6DC70844201DAB5
:102BE000044804800448006881B24FF08040FFF739
:102BF0008AFC10BD5205002020000020F8B50024FA
:102C0000FFF7DCFF2C48008840F21631884211DAC9
:102C10002948008801F086FD064628480023284AF6
:102C200028490090304600F0F1FB054601F042FDD6
:102C300084B23FE020480088B0F5C36F11DA1E4827
:102C4000008801F06FFD06461F481C4B1F4A1C49B7
:102C50000090304600F0DAFB054601F02BFD84B20F
:102C600028E01548008840F60E31884211DA1248F3
:102C7000008801F057FD06461548134B154A1349C5
:102C80000090304600F0C2FB054601F013FD84B20F
:102C900010E00948008801F045FD06460E480C4B3F
:102CA0000E4A0C490090304600F0B0FB054601F09A
:102CB00001FD84B22046F8BD520500200000C84244
:102CC000008045440000A841000048430000C34480
:102CD0000000964300E030450000D24300A07F454D
:102CE00070B586B0012000236E2219460090184668
:102CF000FEF710FB03A8FFF7AFFE0020102303AA86
:102D000001460090FEF76EFD6748D0F8012067A1EC
:102D100002A8FDF78BFA0020102302AA01460090BA
:102D20005820FEF75FFD002010210B46604ACDE9D8
:102D3000001001467020FEF765FA01200F237F2264
:102D4000194600900020FEF7E5FA5749D1F8011026
:102D5000584A128891420BD156490988564A12881E
:102D6000881A002801DB014600E041420A2903DD00
:102D7000514800884F4908804B49D1F801104D4A0D
:102D80001288501A002801DB014600E04142012967
:102D900004DC4548D0F801004649088045480088D1
:102DA000642190FBF1F084B24248008890FBF1F27C
:102DB00001FB12000A2190FBF1F085B23D4800882A
:102DC00090FBF1F201FB120086B204EB44004006D6
:102DD000020E012311210020FEF75AFA05EB4500EF
:102DE0004006020E012311211920FEF751FA06EBCD
:102DF00046004006020E012311213220FEF748FA58
:102E0000012010210B462A4ACDE9001018214E203E
:102E1000FEF7F8F91020022300902848028830219C
:102E20004E20FEF795FC2648007890B10120102135
:102E30000B46244ACDE9001018216E20FEF7E2F976
:102E40000120102320A2302100906820FEF7CAFC48
:102E500027E01E48007890B1012010210B46194A46
:102E6000CDE9001018216E20FEF7CCF901201023C7
:102E700017A2302100906820FEF7B4FC11E0012079
:102E800010210B46134ACDE9001018216E20FEF7E1
:102E9000B9F9012010230EA2302100906820FEF71E
:102EA000A1FC06B070BD0000640E00202564000087
:102EB000A204002064040020020000200000002082
:102EC00067040020DE0400204F4646006604002010
:102ED000204F4E00C20400202DE9F04DC84A0024C6
:102EE00090B0914205DA21F00043934201D805D118
:102EF00020B110B0BDE8F04DFFF7C8BCB1F5801FA0
:102F00001BDA53EA000209D0002911DA0120FDF78B
:102F1000AAFA10B0BDE8F04DFFF7BBBC0220FDF7E8
:102F2000A2FAFFF7ABFC10B081F00041BDE8F08DD4
:102F30006FF03504362201F0ECFD04EB2152C1F3B1
:102F40001308B049A2F2FF33414401F4801282F029
:102F50007F6103EB225281F04051009241EA080167
:102F60000022A94B01F044F9044608F10200A74EE3
:102F7000C0F313000D467E44032867D2D6E9002330
:102F8000204600F0D7FF1ED10098002802BFD6E9E6
:102F9000000110B0BDE8F08D01F008F807460C46BE
:102FA0009B4A9C4B01F01AF806460D469A4A9B4BE9
:102FB0003846214601F012F810B032462B46BDE8E3
:102FC000F04D00F0A3BD4FF05532954B20462946F9
:102FD00001F004F80022934B01F0FEF806460F467C
:102FE00022462B461046194600F0F8FF32463B4673
:102FF00000F0F4FF064600980F46F0B100F0D6FF4F
:1030000080468A46824A834B00F0E8FF32463B46C0
:1030100001F0E2F822462B4601F0EAF805460C469C
:103020007D4A7E4B4046514600F0D8FF10B02A46FC
:103030002346BDE8F04D01F0DBB80B4610B0324638
:1030400020462946BDE8F04D01F0D2B800224FF0ED
:103050008043204600F05AFD02460B462046294692
:1030600000F010FE06460F46009800F09FFFCDE9E5
:10307000040132463B461046394600F0AFFF0C9043
:1030800069480C9A4044019009910B46104600F0A3
:10309000A5FF8246024665488B46C8F151080B469B
:1030A00008F5D72803217844FFF793FB52465B4687
:1030B00000F094FF0A905E480D9152465B46042151
:1030C0007844FFF786FB099B0C9A00F087FF844643
:1030D00001980D9B40EA080860460A9A00F016FD28
:1030E00083460891B8F1000F4EDD4FF0FF322046C5
:1030F000294601F00EFD22462B4600F06FFF804668
:1031000000988A4660B3DDE90401414A414B00F072
:1031100065FF099100905A4640465146089B00F0D1
:10312000F5FC32463B4600F059FF099B009A00F03F
:10313000EDFC4246534601F04FF822462B4601F083
:1031400057F804460D46DDE90401334A334B00F0DD
:1031500045FF10B022462B46BDE8F04D01F048B8BF
:103160005A464046089B00F0D1FC32463B4600F0F0
:1031700035FF4246534601F02FF810B022462B4649
:10318000BDE8F04D01F028B8009840B3DDE9040136
:103190001F4A204B00F022FF80468A465A462046AE
:1031A0002946089B01F024F832463B4600F016FF02
:1031B0004246534601F01CF822462B4601F018F80F
:1031C00004460D46DDE90401134A144B00F006FFE6
:1031D00010B022462B46BDE8F04D01F009B80B4671
:1031E0005A462046294601F003F832463B4600F095
:1031F000F5FE10B022462B46BDE8F04D00F0ECBFC6
:103200000000F07F645F09000000F03FEE34000032
:10321000763C7935EF39EA3D0000E0FE422EE63F8C
:103220005555D53F0000E03F86EBF9FF863300009F
:10323000843300001CB5FDF727FFFFF757FB4FF461
:10324000A060FDF781FF4FF4E13000F0DDFB472186
:1032500044F61F60FFF754F8FDF728FBFDF7C2FAAC
:10326000FDF7CAFEFEF774F800F09EFB40F2CF2196
:1032700042F20F70FFF774F8FEF7F6FCFDF76EFFF1
:103280000120402180234F4ACDE90010002108464B
:10329000FDF7B8FFFEF70CF94FF47A70FFF748FB23
:1032A000FFF7ACFC48490880FFF708FC4749088055
:1032B00000203F237F2201460090FEF72BF880E09C
:1032C000FEF7B6FC424800884FF42F7190FBF1F2F4
:1032D00001FB120040B9FFF7F1FB3C4908803D4873
:1032E00001883DA0FCF796FF3E48007860B9384859
:1032F00000884FF4C87190FBF1F201FB120018B97D
:10330000FFF7EEFCFEF7D4F83748008870B3FFF7FC
:10331000CFFA35484088082810D13248007868B97B
:103320003248007838B100203049087030490860D0
:103330003049086002E001202C4908702E480078CE
:1033400020B100202C4908702A49086025480078DF
:103350002A490870002024490880FEF7AFFA28485F
:10336000006882B227492848FEF74EFE2548D0F86B
:10337000050000280DDD2348D0F8050040F2537108
:1033800048431B490968B1EB401F02D90120174986
:1033900008701C48D0F8090000280DDD1948D0F845
:1033A000090040F25371484312490968B1EB401FCC
:1033B00002D901201049087005480088401C0449C2
:1033C00008807DE76400002002000020000000204B
:1033D00004000020520500204144433A25640D0AB0
:1033E0000000000068040020120000206604002095
:1033F0005C000020600000206704002069040020B9
:1034000054050020640E002004FC00082DE9FC5F38
:1034100006460F4614461D46DDF8308039462046E4
:1034200001F0D0FA29460190404601F0CBFA8346DC
:103430003946304601F0C6FA5946009001F0BAF913
:103440008246019901F058F88146294600F0E6FFCE
:10345000BDE8FC9F10B58AB00446207810234DA229
:10346000002100900846FEF7BDF94BA000680990C6
:103470002078042309AA002100901020FEF74EF9BD
:103480004648D0F8052046A107A8FCF7CFFE2079D2
:10349000102307AA002100905820FEF7A3F96078B6
:1034A000102341A2194600900020FEF79BF93FA08F
:1034B000006806906078042306AA10210090084650
:1034C000FEF72CF93548D0F8092035A107A8FCF7FC
:1034D000ADFE6079102307AA194600905820FEF728
:1034E00081F9A078102332A2202100900020FEF75D
:1034F00079F930A000680590A078042305AA20215E
:1035000000901020FEF70AF92448407B30B10A20D1
:103510008DF810000B208DF8110005E00C208DF8BF
:1035200010000D208DF81100A079022304AA20219B
:1035300000905820FEF7F2F8E07810231EA2302108
:1035400000900020FEF74EF91CA000680390E07880
:10355000032303AA302100901020FEF7DFF80F4864
:10356000807B50B1E0790E211023154ACDE900107F
:1035700032215820FDF746FE09E0E0790E211023A4
:10358000104ACDE9001032215820FDF73BFE0AB069
:1035900010BD0000312E000000010203640E002067
:1035A000252D32646D696E00322E00000405020381
:1035B000332E000006070809342E00000E0F1000FD
:1035C0006A0400208604002010B588B004462078E4
:1035D000102332A2002100900846FEF703F930A024
:1035E000006807902078042307AA0021009010208B
:1035F000FEF794F82B48C07B50B120790E211023A0
:10360000294ACDE9001000215820FDF7FBFD09E013
:1036100020790E211023254ACDE9001000215820E1
:10362000FDF7F0FD6078102321A2194600900020DC
:10363000FEF7D8F81FA103C9CDE90501607806237C
:1036400005AA102100900846FEF768F8A07810231C
:103650001AA2202100900020FEF7C4F818A00068EC
:103660000490A078042304AA202100901020FEF7E3
:1036700055F8E078102313A2302100900020FEF7C7
:10368000B1F811A000680390E078022303AA30216A
:1036900000901020FEF742F808B010BD352E000053
:1036A00011121314640E0020FE0400201A050020DD
:1036B000362E00001718191A13140000372E0000B8
:1036C0001B1C1D1E382E00001F2000001CB504A16D
:1036D00003C9CDE900016846FFF7BCFE1CBD000030
:1036E00001010100010101011CB504A103C9CDE9DB
:1036F00000016846FFF7AEFE1CBD0000010101009D
:10370000010101001CB504A103C9CDE9000168460F
:10371000FFF7A0FE1CBD0000010001010101010135
:103720001CB504A103C9CDE900016846FFF792FE6C
:103730001CBD000001000101010001011CB504A134
:1037400003C9CDE900016846FFF73EFF1CBD00003C
:10375000010100010100000000B585B000203F23F9
:103760007F2201460090FDF7D5FD2FA00068049050
:103770000120022304AA002100900846FDF7CEFF95
:103780000120102329A2002100902020FEF72AF812
:1037900027A0006803900120022303AA00210090C3
:1037A0003020FDF7BBFF23A0006802900120022318
:1037B00002AA102100900020FDF7B0FF0120102385
:1037C0001DA2194600902020FEF70CF81EA00068EC
:1037D00001900120022301AA202100900020FDF782
:1037E0009DFF0120102319A2202100900846FDF71B
:1037F000F9FF0120102317A2302100900020FDF7CF
:10380000F1FF012010232722302100901846FDF7F8
:1038100013FF0120102310A2302100902020FDF77B
:10382000E1FF05B000BD0000212200003A200000A9
:1038300028290000232400003A20323032302E3173
:10384000312E303500000000252600003A20563188
:103850002E320000515100003A20313039313939CF
:1038600036363334000000001CB504A103C9CDE98D
:1038700000016846FFF7EEFD1CBD000001010001DC
:10388000010101011CB504A103C9CDE9000168468D
:10389000FFF7E0FD1CBD0000010100010101000176
:1038A0001CB504A103C9CDE900016846FFF78CFEF1
:1038B0001CBD000001000101010000001CB5012039
:1038C0000E211023044ACDE9001012217220FDF7C9
:1038D00099FC00F055F81CBD6A0400201CB504A139
:1038E00003C9CDE900016846FFF76EFE1CBD00006C
:1038F00001010100010000001CB504A103C9CDE9CC
:1039000000016846FFF7A6FD1CBD00000001010193
:10391000010101011CB504A103C9CDE900016846FC
:10392000FFF798FD1CBD000000010101000101012D
:103930001CB504A103C9CDE900016846FFF744FEA8
:103940001CBD000000010101010000001CB504A124
:1039500003C9CDE900016846FFF736FE1CBD000033
:10396000000101010000000010B50246012000E046
:1039700050430B1EA1F10104E1B2F9D110BD0000CA
:103980001120084908704FF48C70C1F8010005201F
:10399000C1F805001420C1F809000120487388739C
:1039A000C8737047640E002010B50A48006882B2E0
:1039B00009490A48FEF714FB07480078112808D087
:1039C000FFF7DEFF0348006882B203490348FEF7B1
:1039D0001BFB10BD54050020640E002004FC0008F1
:1039E0000549096888B230B90021044A1170044AB7
:1039F0001160044A116070472001214266040020D2
:103A00005C0000206000002010B586B00446012153
:103A100044F20400FEF76CF94FF40070ADF81400A6
:103A200003208DF8160018208DF8170005A91C48F2
:103A3000FDF7B0F94FF48060ADF8140004208DF864
:103A4000170005A91648FDF7A5F925208DF80000F7
:103A500003208DF801008DF8020001208DF803008D
:103A60006846FDF739FB01940020ADF80800ADF879
:103A70000A00ADF80C00ADF810000C20ADF80E00F7
:103A800001A90848FEF734FE012240F225510548FD
:103A9000FEF708FE01210348FEF7CEFD06B010BD7B
:103AA000000801400038014021F00042A2F16052BC
:103AB000B2F5801F01F0004328BFD2F17F6C0BD913
:103AC0005FEA001C43EAC20242EB507018BF704725
:103AD00028BF20F001007047B2F5801FBCBF184618
:103AE00070474FEA410C1CF5001F02D2084600F057
:103AF00028BF70B500F01CFB00000089FFF7F6BF7F
:103B00004FF00040A0F580007047000010B591EA2A
:103B1000030F48BF83F0004300F17283841A71EBF6
:103B2000030C05D2121943EB0C03001B61EB0C01D3
:103B3000DFF824E14FEA1154A4EB135C1EEA430FB3
:103B400018BF9EEA445F73D023EA0E03DCF1200E17
:103B500021EA045143F4801332D322FA0CFE10EB15
:103B60000E0023FA0CFE41EB0E01CCF1200E03FAFD
:103B70000EFE10EB0E0051F10001B1F5801FCCF1EB
:103B8000200E32D201EB045112FA0EF2BDE81040C1
:103B900058BF7047401C38BF5FEA420218BF7047E9
:103BA000002814BF20F0010041F100014FEA410359
:103BB00013F5001F38BF7047A1F1C04100F006BBEC
:103BC000012A43EB0302ACF1200CDCF11F0E32BFE3
:103BD0004FF0000E23FA0CF310EB030041EB0451FD
:103BE000B4EB115FD0D0A1EB045101F5801149086D
:103BF0005FEA300001EB04510ED350F1000038BFF2
:103C000012FA0EFE08D1BDE81040C9E7401C38BFCB
:103C10005FEA4202CAD1C3E7BDE810404FEA410360
:103C200013F5001F38BF7047A1F1C04100F0CEBAB4
:103C30009EEA445F08D011EA5E0FBDE8104004BF61
:103C400001F0004100207047BDE8104070B500F061
:103C50006FFA00BF64FBBE3E0000E0FF02494FF078
:103C6000000000F024BF00BF0000F87F491058BFDB
:103C7000C1F140415B1058BFC3F140438B42EFF3A9
:103C8000008070472DE9C04130B4DFF8A0C23CEAA3
:103C9000111418BF3CEA131400F0EC8081EA03050C
:103CA0001CEA111444EAD57418BF1CEA131500F07D
:103CB000C780A4EB05044FF0004545EAC12145EA61
:103CC000C32341EA505143EA525304F17F749942AD
:103CD00004F500344FEAC0204FEAC22208BF9042E8
:103CE00000F09C804FEA13650FF24016765D4FEAB4
:103CF000134506FB05F7C7F1807706FB07F74FEA88
:103D0000D737A7FB03687642C8F58038A7FB06CEF5
:103D100038BFA8F1010807FB08E64FF0000EA6FB2C
:103D2000028CE6FB03CEDCF1000CCEF1004E38BF76
:103D3000AEF1010EA6FB0C584FF000074FF0000546
:103D4000E6FB0E87A1FB08C6A0FB07CE16EB0E060E
:103D500045F10005E1FB076515F1E04E7EBFA4F5D6
:103D600080345FEA46066D4116F1800745F1000593
:103D70004FEA17274FEA066647EA0567A6F1DE46CF
:103D8000B6F1805F4FEA15251FD9384624F0010CA3
:103D900005EBC471BCF1FE6F01EB0C1102D8F0BC55
:103DA000BDE8008124425CBF01F5801E9EEAC47F0D
:103DB00002D4F0BCBDE80081244238D4F0BCA1F1AB
:103DC000C041BDE8004100F001BA4FEAD22242EA08
:103DD00043524FEAD323A7FB02864FEAD02040EAA2
:103DE000415007FB03661EEA0E0F4FEAD12105FB87
:103DF000026658BFA6EB0056B6EB00564FEA520ECD
:103E00004EEAC37E18EB0E0E56EB530EBDD518EBE3
:103E100002085E417F1C55F10005B6E74FF480159E
:103E20004FF000074FF000064FF00008ADE7F0BC80
:103E30004FF0000001F1C04101F00041BDE80081F8
:103E400011EA0C1F0CEA131500D00CE013EA0C1F4A
:103E500000F025804FF00000F0BC81EA030101F082
:103E60000041BDE80081F0BCBDE8004181EA0301EA
:103E700000F0ACB9F0BCBDE8004170B500F058F9F5
:103E8000097EFC3E00F007B881EA03014FF0000014
:103E900001F00041704781EA030100F097B9F0BCDE
:103EA000BDE800414FF0000021497047FFFDFBF9DC
:103EB000F7F5F4F2F0EEEDEBE9E8E6E4E3E1E0DE5D
:103EC000DDDBDAD8D7D5D4D3D1D0CFCDCCCBCAC8CF
:103ED000C7C6C5C4C2C1C0BFBEBDBCBBBAB9B8B7F6
:103EE000B6B5B4B3B2B1B0AFAEADACABAAA9A8A8E9
:103EF000A7A6A5A4A3A3A2A1A09F9F9E9D9C9C9BB7
:103F00009A99999897979695959493939291919061
:103F10008F8F8E8E8D8C8C8B8B8A898988888787F2
:103F20008685858484838382828181800000FF0767
:103F30000000F87F51EA030C17D41CF5801F58BF0E
:103F4000BCF5801F00F10680994218BF704708BF7A
:103F50009042704707D711F5801F58BF13F5801F97
:103F600019D499427047894270471CF5801F08D5C3
:103F7000BCF5801FF7D58B4218BF704708BF82423F
:103F800070474FF4001C1CEB410F38BF1CEB430F74
:103F900001D28B42704770B500F0CAF892244900F4
:103FA0004FF000514FF08053FFF760BE10F0004219
:103FB00048BF4042B0FA80F310FA03F10AD0C3F1CF
:103FC0001D0303F580634FEA415002EB035202EBFD
:103FD000D12170474FF0000070470000DFF848C162
:103FE00070B51CEA111E1EBF1CEA13159EEA0C0FC9
:103FF00095EA0C0F00F06F8081EA030423EA4C136A
:104000004EEAD47E21EA4C1141F4801143F480132E
:10401000AE44A1FB024CA0FB0365AEF17F7E3619D6
:1040200055EB0C05A1FB034C4CF10003A0FB021C5B
:1040300016EB0C06654153F10003094218BF46F028
:10404000010613F4007F0BD14FEA03314FEA05302C
:10405000340341EA155140EA16506FF003020AE0BA
:104060004FEAC3214FEAC520F40241EA555140EA24
:1040700056506FF0020202EB2E4201EB025585EA28
:10408000CE710AD05FEA440C18BF24F0004450F10E
:10409000000041F1000120EAD47040F2FE7C62454C
:1040A00000D270BDA84214BF4FF080444FF040448E
:1040B000002E08BF0024BEF1806FA8BFA1F1C0414F
:1040C000BDE8704080F282804FF0000001F1C041F5
:1040D00001F0004170479EEA0C0F0CEA131518BF5F
:1040E00095EA0C0F06D04FF0000081EA030E0EF0A7
:1040F000004170BD00F01CF88900013E00F007B8D7
:1041000000F009B84FEA430C5FEA5C5C08D081EA32
:10411000030100F05BB84FEA410C5FEA5C5CF6D14A
:104120004FF00000014970470000FF070000F87FD2
:104130000EF1020E2EF0030E5EF8046B364205D42B
:10414000012A43EB030515F5001F12D8012841EBA6
:10415000010C1CF5001F0CD80ED14FEAD17C15F5CF
:10416000001F0CEB4C0C0CF1020C08BF4CEBD37C89
:1041700004E04FF0080C01E04FEAD37C0CEB4C0557
:1041800026FA05F606F00706B6F1040C06D20EEB89
:10419000860CBDE870404CF0010C6047DFE80CF085
:1041A000090B02024FF000414FF00000A1F5002181
:1041B00070BD19461046012851EB010418BFD4F513
:1041C000001484BF002001F0004170BD0808A0F574
:1041D00000114FEA3101704791EA030F10B581F0E9
:1041E00000413FF59BAC83F0004300F009B80000AC
:1041F00010B591EA030F48BF83F000433FF58EAC42
:10420000841A71EB030C07D212198CF0004C43EBAB
:104210000C03001B61EB0C01DFF8A4E14FEA115421
:10422000A4EB135C1EEA430F18BF9EEA445F00F044
:10423000B08023EA6E03524221EA0451C3EB6E03BD
:1042400038BF5B1EDCF1200E25D322FA0CFE10EBEA
:104250000E0043FA0CFE41EB0E01CCF1200E03FAE6
:104260000EFE10EB0E0051F10001CCF1200E29D40E
:1042700012FA0EF201EB0451BDE8104058BF70472E
:10428000401C1CBFB2F1004F704700280CBF491CF6
:1042900020F00100704712EB020E43EB030218BF3F
:1042A0004FF0010E4EEA4202ACF1200CDCF11E0E82
:1042B00054D943FA0CFE10EB0E0051F1FF31CCF152
:1042C0001E0ED5D50EF1010E12FA0EFE404141EB45
:1042D000010101EB445C5FEA5C5C10D910EBDE701D
:1042E00001EB045138BFBEF1004FBDE8104018BFCC
:1042F000704700280CBF491C20F00100704730D2E5
:104300004FEAD42C11F5001124F400641BD0B1FA4B
:1043100081F20B3AA41AA41ED2F12003914030FA84
:1043200003F31943904001EBCC71002C01EB0451D5
:10433000BDE81040A8BF704701F1C0414FF0000038
:1043400001F000417047B0FA80F310FA03F100D198
:1043500010BDE41A173C4805C90AE4E701EB045113
:1043600010BD491001EB0451BDE810404FEA300088
:1043700002E04FF0000170474A0008BF0042F8D049
:10438000B2F5001F28BF704701F000414FF0000058
:1043900070479EEA445F07D011EA5E0FBDE8104007
:1043A00004BF002100207047BDE8104070B5FFF742
:1043B000BFFE00BF40DFF63E83F00041104670476D
:1043C0000000E0FF43004FEAD30C4FEA3C0C4340AF
:1043D0001FBF40070CF1605113F0FE4F70471CF0F7
:1043E000006F03D100200CF0004170470CF0004337
:1043F00043EA507010B540EACC0000F05CFA00BF10
:10440000000000924FEA0001FFF7E0BE4FF00041CC
:104410004FF00000A1F500217047000090EA010F65
:1044200048BF81F0004100F1D482421A3CBF801A9B
:1044300089184FEAD0524FF07F4C1CEA410FA2EB93
:10444000D15318BF9CEA026F00F03B804FF0004C44
:104450004CEA00204CEA012121FA03FC10EB0C0C81
:104460001ED202F1FF325FEA1C2040EBC25038BF7F
:1044700070471CF07F0F4FEA400C18BFBCF17F4F14
:1044800038BF7047C3F12003994008BF20F00100F6
:10449000BCF17F4F38BF7047A0F1C04000F051BA67
:1044A0004FEA3C00000A40EBC25028BF1CF0FF0F4F
:1044B0004FEA400CE6D018BFBCF17F4F38BF7047C1
:1044C000EAE79CEA026F05D010EA5C0F08BF00F033
:1044D0000040704710B500F0EEF900BF64FBBE3E2F
:1044E000401058BFC0F14040491058BFC1F1404191
:1044F0008142EFF3008070474FF47F0C1CEAD0122A
:104500001EBF1CEAD11392EA0C0F93EA0C0F00F0C5
:10451000858090EA010F48BF42F4807240F4000C9D
:1045200041F400002CF07F4120F07F4000B5814233
:10453000A2EB03020FF2081CACEB504EC0F10000DE
:104540009EF800E04FEA4E0E00FB0EFC38BF49001B
:104550004FEA2C1C02F5FA020CFB0EF34FEACE1EBA
:104560004FEA112C4FEAC1210EEB635E42EB22426F
:104570000EFB0CFC4FEA1C5300FB03114FEA112CFD
:104580004FEA01310EFB0CFC4FEADC4C00FB0C1136
:10459000C14228BF09184CEB03335DF804EB10EB64
:1045A000410143EBC250B2F57C0F38BF704729D5AB
:1045B00012F0F00F1CBF00F1C04000F00040704747
:1045C000008182838485868788898B8C8D8E8F91EC
:1045D0009293959697999A9C9D9FA0A2A3A5A7A810
:1045E000AAACAEB0B2B3B5B7B9BCBEC0C2C5C7C93C
:1045F000CCCED1D4D7D9DCDFE2E6E9ECF0F3F7FAA0
:10460000FE0000004FEA400C0CF1807CBCF17E4FB4
:1046100028BF7047B0F1C04000F093B990EA010F95
:104620000CEAD11348BF42F48072624538BF63453B
:1046300007D213F47F0F16D080EA010000F000408B
:10464000704710B500F037F9097EFC3E00F005B860
:1046500080EA010000F00040704780EA010000F0AD
:10466000004000F06EB912F47F0F04BF024870479B
:1046700080EA010000F065B90000C07F41000B0E28
:10468000D3F19E0208D950F400034FEA032323FA22
:1046900002F048BF4042704710B500F00CF900BF6F
:1046A00049922480002070476FF0004282EA200087
:1046B00070470000C10DD1F19E0206DB4FEA0023D6
:1046C00043F0004323FA02F07047004207D54FEA57
:1046D0004001B1F1FE4F02D24FF00000704710B51B
:1046E00000F0E9F849922480002070476FEA20002A
:1046F0007047000010F0004148BF4042B0FA80F31C
:1047000010FA03F2C3F19D030BD051EAC35101EB40
:104710001220530638BF704700F1010008BF20F097
:1047200001007047B0FA80F310FA03F2C3F19D0361
:104730000AD0D90501EB1220530638BF704700F1AB
:10474000010008BF20F001007047000050EA010C92
:1047500000F113801CF5000F58BFBCF5000F01D409
:104760008842704707D710F5000F58BF11F5000FAA
:1047700015D488427047894270471CF5000F04D554
:10478000BCF5000FF7D5814270474FF0807C1CEBE1
:10479000400F38BF1CEB410F01D28142704710B56A
:1047A00000F089F8922449004FF000504FF08051FA
:1047B000FFF796BE4FF47F0C1CEAD0121EBF1CEA16
:1047C000D11392EA0C0F93EA0C0F00F0478090EAA5
:1047D000010F48BF42F480724FF0004C4CEA0020B9
:1047E0004CEA012102EB0302A0FB0113A2F5000237
:1047F000002918BF43F001035B0028BF4FEA3303D1
:1048000042EB22425FEA132C4CEBC2502EBFBCEBB2
:10481000436FB2F57C0F70474FEA036CBCF1004F59
:1048200008BF20F00100B2F57C0F38BF70470BD5F0
:1048300082F0FF0212F5803FC8BF704700F1C04010
:10484000D8BF00F00040704700F5000C5FEA4C0C48
:1048500048BF7047B0F1C04000F073B890EA010F54
:104860000CEAD11348BF42F48072624538BF6345F9
:1048700004D280EA010000F00040704710B500F05B
:104880001AF800BF8900013E00F007B800F009B82F
:104890005FEA410C5FEA1C6C08D080EA010000F07E
:1048A00050B85FEA400C5FEA1C6CF6D14FF0004054
:1048B000A0F5800070470EF1020E2EF0030E5EF898
:1048C000044B244204D44FEA4102B2F17F4F11D885
:1048D0004FEA4003B3F17F4F0CD80ED14FEAD07CA2
:1048E000B2F17F4F0CEB4C0C0CF1020C08BF4CEBFF
:1048F000D17C04E04FF0080C01E04FEAD17C0CEBD6
:104900004C0324FA03F404F00704B4F1040C06D2B7
:104910000EEB840CBDE810404CF0010C6047DFE862
:104920000CF0070802024FF00040A0F5800010BD17
:104930000846420018BFD2F1807288BF00F00040E4
:1049400010BDFF2141EAD050C005704751EA000C6C
:1049500000F113801CF5000F58BFBCF5000F01D407
:104960008142704707D711F5000F58BF10F5000FAF
:1049700015D481427047894270471CF5000F04D559
:10498000BCF5000FF7D5884270474FF0807C1CEBD8
:10499000410F38BF1CEB400F01D28842704780EABC
:1049A000010081EA000180EA0100FFF7F8BE80F013
:1049B000004090EA010F7FF538AD81F0004100F032
:1049C00008B8000090EA010F48BF81F000413FF5B0
:1049D0002CAD421A04D882F00042A0EB0200114430
:1049E0004FEAD0524FF07F4C1CEA410FA2EBD1535B
:1049F00018BF9CEA026F4AD04FF0004C4CEA0020EE
:104A00004CEA012121FA03FCB0EB0C0C0FD412F09C
:104A1000FE0F36D05FEA4C001DD5001240EBC250AD
:104A200038BF70471CF03F0F18BF70470BE0A2F172
:104A300001025FEA1C2040EBC25038BF70471CF0F7
:104A40007F0F18BF7047C3F12003994014BF401E69
:104A500020F00100704780084FEA122308BF70471A
:104A6000B0FA80FCA2EB0C02CCF1280C60FA0CF03E
:104A700093EA122F04BF00EBC25070474FEAC37095
:104A80007047130A5FEADC1008BF7047F6E79CEA3C
:104A9000026F04D010EA5C0F08BF0020704710B509
:104AA000FFF709FF40DFF63E81F0004070470CF051
:104AB0000F03092B08BF082000F059800A2B0BD0E8
:104AC000082B18BF704708BF1CF0400F0AD04FF0EA
:104AD00000004FF0000170471CF0400F18BF4FF06E
:104AE000004070471CF0100F08D020F0704300F019
:104AF0007F4242EAD3014FEA4370704700F06040C2
:104B000021F07F4242EA000201F07F4040EA7270E9
:104B100070474FF0FF0C4CF4E06C1CEA11531CBFC3
:104B20009CEA030C9445C2BFDA4201EB0251704784
:104B3000002B0DD0BCF1000F0FD0002A01F0004176
:104B4000A4BF41F0E04141F07F614FF000007047A9
:104B500001F000414FF00000704750EA01334FF080
:104B60009B0C18BF4CF0806C7FF478A870471CF445
:104B7000801F11D01CF4E02F03D06FEACC31490024
:104B800070474FF04050EFF3008222F0704242EA4B
:104B9000000282F3008870474FF000007047000069
:104BA00048000000000C0140020000000800000066
:104BB00000000000000000000000000000000000F5
:104BC0003F400000000000000000300040003000C6
:104BD0004000000009000BC03D000BC03D00090073
:104BE00018C024407FE0224031800000180024C01B
:104BF0001B000D803240018003801C4027401C8038
:104C000007400040100060000000000000000000AD
:104C10000000000000001F802040402000004020D5
:104C200020401F8000000000090006001F800600D1
:104C300009000000040004003F800400040000009C
:104C400000100060000000000000000004000400EC
:104C50000400040004000000000000400000000008
:104C600000000000002001C00600380040000000E5
:104C70001F802040204020401F8000000000104086
:104C80003FC000400000000018C0214022402440E6
:104C90001840000010802040244024401B80000069
:104CA00002000D0011003FC0014000003C80244084
:104CB00024402440238000001F80244024403440AE
:104CC000038000003000200027C0380020000000D2
:104CD0001B802440244024401B8000001C0022C074
:104CE000224022401F800000000000000840000019
:104CF0000000000000000000046000000000000050
:104D0000000004000A001100208040400900090052
:104D10000900090009000000000040402080110047
:104D20000A0004001800200023402400180000009E
:104D30001F802040274029401F400000004007C03E
:104D400039000F0001C0004020403FC024402440F3
:104D50001B8000001F802040204020403080000049
:104D600020403FC0204020401F80000020403FC026
:104D700024402E4030C0000020403FC024402E0080
:104D8000300000000F0010802040224033800200DD
:104D900020403FC0040004003FC02040204020408D
:104DA0003FC02040204000000060202020203FC065
:104DB0002000200020403FC024400B0030C0204095
:104DC00020403FC020400040004000C03FC03C00A9
:104DD00003C03C003FC0000020403FC00C40230007
:104DE0003FC020001F802040204020401F80000046
:104DF00020403FC024402400180000001F802140B4
:104E0000214020E01FA0000020403FC02440260099
:104E100019C0004018C024402440224031800000C6
:104E2000300020403FC020403000000020003F8084
:104E3000004000403F80200020003E0001C00700ED
:104E400038002000380007C03C0007C038000000D0
:104E5000204039C0060039C0204000002000384002
:104E600007C0384020000000304021C026403840B4
:104E700020C00000000000007FE040204020000033
:104E8000000070000C000380004000000000402083
:104E900040207FE0000000000000200040002000D3
:104EA00000000000001000100010001000100010A2
:104EB0000000000040000000000000000000028030
:104EC0000540054003C0004020003FC004400440AE
:104ED00003800000000003800440044006400000FE
:104EE00000000380044024403FC0004000000380D5
:104EF0000540054003400000000004401FC024405E
:104F000024402000000002E0055005500650042017
:104F100020403FC00440040003C0004000000440A3
:104F200027C000400000000000100010041027E01F
:104F30000000000020403FC00140070004C00440C2
:104F4000204020403FC000400040000007C0040057
:104F500007C0040003C00000044007C00440040070
:104F600003C00040000003800440044003800000B0
:104F7000041007F004500440038000000000038088
:104F80000440045007F00010044007C00240040031
:104F900004000000000006400540054004C0000079
:104FA000000004001F80044000400000040007804F
:104FB0000040044007C000400400070004C0018016
:104FC00006000400060001C0070001C00600000042
:104FD000044006C0010006C0044000000410071091
:104FE00004E00180060004000000044005C0064003
:104FF000044000000000000004007BE040200000AE
:10500000000000000000FFF0000000000000402051
:105010007BE0040000000000400080004000200011
:105020002000400000000000000000000000000020
:10503000000000000000000000001FCC000C000079
:105040000000000000000800300060000800300090
:1050500060000000022003FC1E20022003FC1E2032
:105060000220000000000E1811043FFF10840C788D
:10507000000000000F0010840F3800C0077818846B
:105080000078000000780F8410C411240E9800E40A
:1050900000840008080068007000000000000000A4
:1050A0000000000000000000000007E018182004C5
:1050B00040020000000040022004181807E0000031
:1050C000000000000240024001800FF00180024019
:1050D000024000000080008000800FF80080008007
:1050E000008000000001000D000E00000000000024
:1050F0000000000000000080008000800080008030
:10510000008000800000000C000C00000000000087
:10511000000000000000000600180060018006008A
:1051200018002000000007F0080810041004080808
:1051300007F000000000080408041FFC000400043D
:105140000000000000000E0C101410241044118404
:105150000E0C000000000C18100411041104128839
:105160000C700000000000E00320042408241FFC51
:105170000024000000001F981084110411041088FE
:1051800010700000000007F008881104110418884E
:105190000070000000001C00100010FC13001C0038
:1051A0001000000000000E381144108410841144D7
:1051B0000E38000000000700088C104410440888D6
:1051C00007F00000000000000000030C030C0000CA
:1051D00000000000000000000001010600000000C7
:1051E00000000000000000800140022004100808B8
:1051F00010040000022002200220022002200220CF
:1052000002200000000010040808041002200140E1
:105210000080000000000E001200100C106C1080C6
:105220000F00000003E00C1813E4142417C408282E
:1052300007D000000004003C03C41C40074000E409
:10524000001C000410041FFC1104110411040E883A
:105250000070000003E00C18100410041004100883
:105260001C10000010041FFC100410041004080897
:1052700007F0000010041FFC1104110417C41004EF
:105280000818000010041FFC1104110017C01000C2
:105290000800000003E00C181004100410441C78EF
:1052A0000040000010041FFC108400800080108467
:1052B0001FFC10040000100410041FFC1004100454
:1052C0000000000000030001100110011FFE10008B
:1052D0001000000010041FFC110403801464181C4B
:1052E0001004000010041FFC10040004000400045B
:1052F000000C000010041FFC1F0000FC1F001FFC1E
:105300001004000010041FFC0C04030000E010183F
:105310001FFC100007F0080810041004100408080F
:1053200007F0000010041FFC108410801080108013
:105330000F00000007F0081810241024101C080AA1
:1053400007F2000010041FFC1104110011C01130FD
:105350000E0C000400000E1C110410841084104474
:105360001C3800001800100010041FFC100410006E
:105370001800000010001FF81004000400041004BE
:105380001FF8100010001E0011E0001C00701380B8
:105390001C0010001FC0103C00E01F0000E0103C8B
:1053A0001FC000001004180C163401C001C01634D0
:1053B000180C100410001C00130400FC13041C0043
:1053C000100000000804101C1064108413041C0456
:1053D000101800000000000000007FFE40024002A4
:1053E00040020000000030000C0003800060001C40
:1053F0000003000000004002400240027FFE000067
:1054000000000000000000002000400040004000BC
:105410002000000000010001000100010001000166
:1054200000010001000040004000200000000000DA
:1054300000000000000000980124014401440144E0
:1054400000FC000410001FFC008801040104008817
:1054500000700000000000700088010401040104D5
:105460000088000000000070008801040104110899
:105470001FFC0004000000F8014401440144014401
:1054800000C800000000010401040FFC1104110415
:1054900011001800000000D601290129012901C9C5
:1054A0000106000010041FFC00840100010001043B
:1054B00000FC000400000104190419FC00040004AD
:1054C000000000000000000300010101190119FEA5
:1054D0000000000010041FFC0024004001B4010C77
:1054E000010400000000100410041FFC000400046C
:1054F00000000000010401FC0104010001FC0104A2
:10550000010000FC010401FC008401000100010411
:1055100000FC0004000000F801040104010401047F
:1055200000F80000010101FF00850104010400886A
:1055300000700000000000700088010401040105F3
:1055400001FF00010104010401FC008401040100C9
:1055500001800000000000CC01240124012401246A
:105560000198000000000100010007F80104010497
:1055700000000000010001F800040004000401081C
:1055800001FC0004010001800170000C00100160AA
:105590000180010001F0010C003001C00030010C5D
:1055A00001F0010000000104018C00740170018C05
:1055B00001040000010101810171000E0018016069
:1055C0000180010000000184010C013401440184C8
:1055D000010C0000000000000000000001003EFC83
:1055E000400240020000000000000000FFFF000039
:1055F000000000000000400240023EFC01000000EC
:1056000000000000000060008000800040004000BA
:10561000200020000000000000000000000000004A
:10562000000000000000000000000000000000007A
:10563000000000000000000000000000000000006A
:1056400000000000000000000FFF0000000000FF4D
:10565000FFF000000003FFFFFC00000007E0007EF9
:105660000000001F00000F800000180000018000F3
:105670000030000000C0000060000000600000403A
:10568000000000200000400000002000004000005A
:1056900000200000400000002000006000000060CA
:1056A000000020000000C0000038000001C0000021
:1056B0001E0000078000000FE0007E00000003FFD6
:1056C000FFFC00000000FFFFF0000000000FFF00E3
:1056D00000000000000000000000000000000000CA
:1056E00000000000000000000000000000000000BA
:1056F00000000000000000000000000000000000AA
:105700000000000000000000000000000000000099
:105710000000000000000000000000000000000089
:105720000000000800000020000008000000200029
:105730000008000000200000080000002000000811
:105740000000006000001FFFFFFFE000003FFFFFC0
:10575000FFE000007FFFFFFFE000000000000060AE
:1057600000000000000020000000000000200000F9
:1057700000000000200000000000002000000000E9
:1057800000002000000000000000000000000000F9
:105790000000000000000000000000000000000009
:1057A00000000000000000000000000000000000F9
:1057B00000000000000000000000000000000000E9
:1057C00000000000000000000000000000000000D9
:1057D0000001E0000003E00003E000000FF0000E15
:1057E000E000001FF0001CE000001FF00030E000AF
:1057F0000030600060E00000200000C0E0000060B9
:10580000000180E0000040000300E00000400006CE
:1058100000E0000040000C00E0000040001800E044
:10582000000040003000E000006000E000E0000008
:105830003001C000E000003C0F8001E000001FFFCD
:105840000003E000000FFE000FE0000003F0001C6A
:105850000000000000000000000000000000000048
:105860000000000000000000000000000000000038
:105870000000000000000000000000000000000028
:105880000000000000000000000000000000000018
:10589000001E0000000780003F0000000FC0003F16
:1058A00080000011C0001CC000002000000040006B
:1058B0000020000000200000400000002000004008
:1058C0000080002000004000800020000040008098
:1058D00000200000400080002000006001C0002087
:1058E00000006001400040000030036000C0000084
:1058F0003C0E3001C000001FFC3C078000000FF888
:105900001FFF00000003E00FFE000000000001F890
:105910000000000000000000000000000000000087
:105920000000000000000000000000000000000077
:105930000000000000000000000000000000000067
:1059400000000000000000000001800000000000D6
:10595000038000000000000E80000000000038807E
:10596000000000000060800000000001C080000016
:105970000000070080000000000C00800000000014
:1059800030008020000000600080200000018000C6
:1059900080200000060000802000000C00008060D5
:1059A00000003FFFFFFFE000007FFFFFFFE000007F
:1059B0007FFFFFFFE00000000000806000000000AB
:1059C0000080200000000000802000000000008017
:1059D0002000000000008020000000000000000007
:1059E00000000000000000000000000000000000B7
:1059F00000000000000000000000000000000000A7
:105A00000000000000000000000000000000000096
:105A1000003C000000003FE07F0000007FFFE07FCF
:105A20008000007000C038800000700180004000DD
:105A300000700300004000007003000020000070B0
:105A40000600002000007006000020000070060024
:105A500000200000700600002000007006000020FA
:105A600000007007000060000070030000C000002C
:105A70007003C001C000007001F00F8000007000D2
:105A8000FFFF00000070007FFC00000000000FF02E
:105A90000000000000000000000000000000000006
:105AA00000000000000000000000000000000000F6
:105AB00000000000000000000000000000000000E6
:105AC000000000000000000007FF80000000007FD1
:105AD000FFF800000001FFFFFE00000007E0703F3C
